{
  "_format": "hh-sol-artifact-1",
  "contractName": "Board",
  "sourceName": "contracts/Board.sol",
  "abi": [
    {
      "inputs": [
        {
          "internalType": "address",
          "name": "_propertyAddress",
          "type": "address"
        },
        {
          "internalType": "address",
          "name": "_tokenAddress",
          "type": "address"
        }
      ],
      "stateMutability": "nonpayable",
      "type": "constructor"
    },
    {
      "anonymous": false,
      "inputs": [
        {
          "indexed": true,
          "internalType": "bytes32",
          "name": "role",
          "type": "bytes32"
        },
        {
          "indexed": true,
          "internalType": "bytes32",
          "name": "previousAdminRole",
          "type": "bytes32"
        },
        {
          "indexed": true,
          "internalType": "bytes32",
          "name": "newAdminRole",
          "type": "bytes32"
        }
      ],
      "name": "RoleAdminChanged",
      "type": "event"
    },
    {
      "anonymous": false,
      "inputs": [
        {
          "indexed": true,
          "internalType": "bytes32",
          "name": "role",
          "type": "bytes32"
        },
        {
          "indexed": true,
          "internalType": "address",
          "name": "account",
          "type": "address"
        },
        {
          "indexed": true,
          "internalType": "address",
          "name": "sender",
          "type": "address"
        }
      ],
      "name": "RoleGranted",
      "type": "event"
    },
    {
      "anonymous": false,
      "inputs": [
        {
          "indexed": true,
          "internalType": "bytes32",
          "name": "role",
          "type": "bytes32"
        },
        {
          "indexed": true,
          "internalType": "address",
          "name": "account",
          "type": "address"
        },
        {
          "indexed": true,
          "internalType": "address",
          "name": "sender",
          "type": "address"
        }
      ],
      "name": "RoleRevoked",
      "type": "event"
    },
    {
      "inputs": [],
      "name": "DEFAULT_ADMIN_ROLE",
      "outputs": [
        {
          "internalType": "bytes32",
          "name": "",
          "type": "bytes32"
        }
      ],
      "stateMutability": "view",
      "type": "function"
    },
    {
      "inputs": [],
      "name": "GAME_CONTRACT",
      "outputs": [
        {
          "internalType": "bytes32",
          "name": "",
          "type": "bytes32"
        }
      ],
      "stateMutability": "view",
      "type": "function"
    },
    {
      "inputs": [
        {
          "internalType": "bytes32",
          "name": "role",
          "type": "bytes32"
        }
      ],
      "name": "getRoleAdmin",
      "outputs": [
        {
          "internalType": "bytes32",
          "name": "",
          "type": "bytes32"
        }
      ],
      "stateMutability": "view",
      "type": "function"
    },
    {
      "inputs": [
        {
          "internalType": "address",
          "name": "game",
          "type": "address"
        }
      ],
      "name": "grantGameRole",
      "outputs": [],
      "stateMutability": "nonpayable",
      "type": "function"
    },
    {
      "inputs": [
        {
          "internalType": "bytes32",
          "name": "role",
          "type": "bytes32"
        },
        {
          "internalType": "address",
          "name": "account",
          "type": "address"
        }
      ],
      "name": "grantRole",
      "outputs": [],
      "stateMutability": "nonpayable",
      "type": "function"
    },
    {
      "inputs": [
        {
          "internalType": "uint256",
          "name": "position",
          "type": "uint256"
        },
        {
          "internalType": "address",
          "name": "player",
          "type": "address"
        }
      ],
      "name": "handleLandingEffect",
      "outputs": [],
      "stateMutability": "nonpayable",
      "type": "function"
    },
    {
      "inputs": [
        {
          "internalType": "bytes32",
          "name": "role",
          "type": "bytes32"
        },
        {
          "internalType": "address",
          "name": "account",
          "type": "address"
        }
      ],
      "name": "hasRole",
      "outputs": [
        {
          "internalType": "bool",
          "name": "",
          "type": "bool"
        }
      ],
      "stateMutability": "view",
      "type": "function"
    },
    {
      "inputs": [],
      "name": "propertyContract",
      "outputs": [
        {
          "internalType": "contract IMonopolyProperty",
          "name": "",
          "type": "address"
        }
      ],
      "stateMutability": "view",
      "type": "function"
    },
    {
      "inputs": [
        {
          "internalType": "bytes32",
          "name": "role",
          "type": "bytes32"
        },
        {
          "internalType": "address",
          "name": "account",
          "type": "address"
        }
      ],
      "name": "renounceRole",
      "outputs": [],
      "stateMutability": "nonpayable",
      "type": "function"
    },
    {
      "inputs": [
        {
          "internalType": "bytes32",
          "name": "role",
          "type": "bytes32"
        },
        {
          "internalType": "address",
          "name": "account",
          "type": "address"
        }
      ],
      "name": "revokeRole",
      "outputs": [],
      "stateMutability": "nonpayable",
      "type": "function"
    },
    {
      "inputs": [
        {
          "internalType": "bytes4",
          "name": "interfaceId",
          "type": "bytes4"
        }
      ],
      "name": "supportsInterface",
      "outputs": [
        {
          "internalType": "bool",
          "name": "",
          "type": "bool"
        }
      ],
      "stateMutability": "view",
      "type": "function"
    },
    {
      "inputs": [
        {
          "internalType": "uint256",
          "name": "",
          "type": "uint256"
        }
      ],
      "name": "tiles",
      "outputs": [
        {
          "internalType": "enum Board.TileType",
          "name": "tileType",
          "type": "uint8"
        },
        {
          "internalType": "string",
          "name": "name",
          "type": "string"
        },
        {
          "internalType": "uint256",
          "name": "value",
          "type": "uint256"
        },
        {
          "internalType": "uint256",
          "name": "linkedPropertyId",
          "type": "uint256"
        }
      ],
      "stateMutability": "view",
      "type": "function"
    },
    {
      "inputs": [],
      "name": "tokenContract",
      "outputs": [
        {
          "internalType": "contract ISkipLabToken",
          "name": "",
          "type": "address"
        }
      ],
      "stateMutability": "view",
      "type": "function"
    }
  ],
  "bytecode": "0x60806040523480156200001157600080fd5b506040516200192f3803806200192f833981016040819052620000349162000627565b6200004160003362000090565b6200004e60003062000090565b60a180546001600160a01b038085166001600160a01b03199283161790925560a280549284169290911691909117905562000088620000a0565b5050620006c8565b6200009c8282620004c4565b5050565b604080516080810190915280600081526020016040518060400160405280600581526020016414dd185c9d60da1b815250815260200160c8815260200160008152506001600060288110620000f957620000f962000675565b6004020160008201518160000160006101000a81548160ff021916908360058111156200012a576200012a6200065f565b0217905550602082810151805162000149926001850192019062000564565b506040828101516002830155606090920151600390910155805160808101909152806001815260200160405180604001604052806003815260200162484b5560e81b8152508152602001603c8152602001600181525060018060288110620001b557620001b562000675565b6004020160008201518160000160006101000a81548160ff02191690836005811115620001e657620001e66200065f565b0217905550602082810151805162000205926001850192019062000564565b506040828101516002830155606090920151600391820155815160808101909252819081526020016040518060400160405280600f81526020016e10dbdb5b5d5b9a5d1e4810da195cdd608a1b815250815260200160008152602001600081525060016002602881106200027d576200027d62000675565b6004020160008201518160000160006101000a81548160ff02191690836005811115620002ae57620002ae6200065f565b02179055506020828101518051620002cd926001850192019062000564565b506040828101516002838101919091556060938401516003909301929092558051608081018252600180825282518084018452600781526610d95b9d1c985b60ca1b602082810191909152830152603c92820192909252928301919091528151600d80549092839160ff1916908360058111156200034f576200034f6200065f565b021790555060208281015180516200036e926001850192019062000564565b50604082810151600283015560609283015160039092019190915580516080810182526004815281518083018352600a815269092dcc6dedaca40a8c2f60b31b60208281019190915282015260c891810191909152600091810191909152805160118054909190829060ff19166001836005811115620003f257620003f26200065f565b0217905550602082810151805162000411926001850192019062000564565b5060408281015160028301556060928301516003928301558051608081018252600180825282518084018452600781526629ba30ba34b7b760c91b60208281019190915283015260c892820192909252928301919091528151601580549092839160ff1916908360058111156200048c576200048c6200065f565b02179055506020828101518051620004ab926001850192019062000564565b5060408201516002820155606090910151600390910155565b6000828152602081815260408083206001600160a01b038516845290915290205460ff166200009c576000828152602081815260408083206001600160a01b03851684529091529020805460ff19166001179055620005203390565b6001600160a01b0316816001600160a01b0316837f2f8788117e7eff1d82e926ec794901d17c78024a50270940304540a733656f0d60405160405180910390a45050565b82805462000572906200068b565b90600052602060002090601f016020900481019282620005965760008555620005e1565b82601f10620005b157805160ff1916838001178555620005e1565b82800160010185558215620005e1579182015b82811115620005e1578251825591602001919060010190620005c4565b50620005ef929150620005f3565b5090565b5b80821115620005ef5760008155600101620005f4565b80516001600160a01b03811681146200062257600080fd5b919050565b600080604083850312156200063b57600080fd5b62000646836200060a565b915062000656602084016200060a565b90509250929050565b634e487b7160e01b600052602160045260246000fd5b634e487b7160e01b600052603260045260246000fd5b600181811c90821680620006a057607f821691505b60208210811415620006c257634e487b7160e01b600052602260045260246000fd5b50919050565b61125780620006d86000396000f3fe608060405234801561001057600080fd5b50600436106100cf5760003560e01c806377e1e4d71161008c57806396ce55bc1161006657806396ce55bc146101f0578063a217fddf14610203578063d547741f1461020b578063f1d19e071461021e57600080fd5b806377e1e4d7146101a35780638fca9673146101ca57806391d14854146101dd57600080fd5b806301ffc9a7146100d4578063248a9ca3146100fc5780632f2ff15d1461012d5780632fd2e7421461014257806336568abe1461016557806355a373d614610178575b600080fd5b6100e76100e2366004610f19565b610231565b60405190151581526020015b60405180910390f35b61011f61010a366004610f43565b60009081526020819052604090206001015490565b6040519081526020016100f3565b61014061013b366004610f71565b610242565b005b610155610150366004610f43565b61026c565b6040516100f3949392919061100f565b610140610173366004610f71565b610328565b60a25461018b906001600160a01b031681565b6040516001600160a01b0390911681526020016100f3565b61011f7f78a8708a3a199518d3505c5ab9ae6d9c4738044ca9641d04e1c8b4d0e64941af81565b60a15461018b906001600160a01b031681565b6100e76101eb366004610f71565b6103ab565b6101406101fe366004610f71565b6103d4565b61011f600081565b610140610219366004610f71565b6105bd565b61014061022c366004611059565b6105e2565b600061023c8261074e565b92915050565b60008281526020819052604090206001015461025d81610783565b6102678383610790565b505050565b6001816028811061027c57600080fd5b60040201805460018201805460ff90921693509061029990611076565b80601f01602080910402602001604051908101604052809291908181526020018280546102c590611076565b80156103125780601f106102e757610100808354040283529160200191610312565b820191906000526020600020905b8154815290600101906020018083116102f557829003601f168201915b5050505050908060020154908060030154905084565b6001600160a01b038116331461039d5760405162461bcd60e51b815260206004820152602f60248201527f416363657373436f6e74726f6c3a2063616e206f6e6c792072656e6f756e636560448201526e103937b632b9903337b91039b2b63360891b60648201526084015b60405180910390fd5b6103a78282610814565b5050565b6000918252602082815260408084206001600160a01b0393909316845291905290205460ff1690565b7f78a8708a3a199518d3505c5ab9ae6d9c4738044ca9641d04e1c8b4d0e64941af6103fe81610783565b602883106104415760405162461bcd60e51b815260206004820152601060248201526f24b73b30b634b2103837b9b4ba34b7b760811b6044820152606401610394565b600060018460288110610456576104566110b1565b6040805160808101909152600491909102919091018054829060ff16600581111561048357610483610fa1565b600581111561049457610494610fa1565b81526020016001820180546104a890611076565b80601f01602080910402602001604051908101604052809291908181526020018280546104d490611076565b80156105215780601f106104f657610100808354040283529160200191610521565b820191906000526020600020905b81548152906001019060200180831161050457829003601f168201915b505050918352505060028201546020820152600390910154604090910152905060018151600581111561055657610556610fa1565b141561056f5761056a816060015184610879565b6105b7565b60028151600581111561058457610584610fa1565b14156105935761056a83610acb565b6003815160058111156105a8576105a8610fa1565b14156105b7576105b783610b3d565b50505050565b6000828152602081905260409020600101546105d881610783565b6102678383610814565b60006105ed81610783565b6001600160a01b03821661063a5760405162461bcd60e51b8152602060048201526014602482015273496e76616c69642067616d65206164647265737360601b6044820152606401610394565b6106647f78a8708a3a199518d3505c5ab9ae6d9c4738044ca9641d04e1c8b4d0e64941af83610790565b60a254604080516355a0038360e11b815290516000926001600160a01b03169163ab400706916004808301926020929190829003018186803b1580156106a957600080fd5b505afa1580156106bd573d6000803e3d6000fd5b505050506040513d601f19601f820116820180604052508101906106e191906110c7565b60a254604051632f2ff15d60e01b8152600481018390526001600160a01b038681166024830152929350911690632f2ff15d90604401600060405180830381600087803b15801561073157600080fd5b505af1158015610745573d6000803e3d6000fd5b50505050505050565b60006001600160e01b03198216637965db0b60e01b148061023c57506301ffc9a760e01b6001600160e01b031983161461023c565b61078d8133610b7e565b50565b61079a82826103ab565b6103a7576000828152602081815260408083206001600160a01b03851684529091529020805460ff191660011790556107d03390565b6001600160a01b0316816001600160a01b0316837f2f8788117e7eff1d82e926ec794901d17c78024a50270940304540a733656f0d60405160405180910390a45050565b61081e82826103ab565b156103a7576000828152602081815260408083206001600160a01b0385168085529252808320805460ff1916905551339285917ff6391f5c32d9c69d2a47ea670b442974b53935d1edc7fd64eb21e047a839171b9190a45050565b60a1546040516331a9108f60e11b8152600481018490526000916001600160a01b031690636352211e9060240160206040518083038186803b1580156108be57600080fd5b505afa1580156108d2573d6000803e3d6000fd5b505050506040513d601f19601f820116820180604052508101906108f691906110e0565b90506001600160a01b038116610ac05760a1546040516301e25d4b60e21b8152600481018590526000916001600160a01b031690630789752c9060240160206040518083038186803b15801561094b57600080fd5b505afa15801561095f573d6000803e3d6000fd5b505050506040513d601f19601f8201168201806040525081019061098391906110c7565b60a25460405163d1660f9960e01b81526001600160a01b0386811660048301523060248301526044820184905292935091169063d1660f9990606401602060405180830381600087803b1580156109d957600080fd5b505af11580156109ed573d6000803e3d6000fd5b505050506040513d601f19601f82011682018060405250810190610a1191906110fd565b610a4e5760405162461bcd60e51b815260206004820152600e60248201526d14185e5b595b9d0819985a5b195960921b6044820152606401610394565b60a154604051632142170760e11b81523060048201526001600160a01b03858116602483015260448201879052909116906342842e0e90606401600060405180830381600087803b158015610aa257600080fd5b505af1158015610ab6573d6000803e3d6000fd5b5050505050505050565b610267838383610bd7565b60a254604051634eb9029960e01b81526001600160a01b03838116600483015268056bc75e2d63100000602483015290911690634eb90299906044015b600060405180830381600087803b158015610b2257600080fd5b505af1158015610b36573d6000803e3d6000fd5b5050505050565b60a254604051634eb9029960e01b81526001600160a01b0383811660048301526802b5e3af16b1880000602483015290911690634eb9029990604401610b08565b610b8882826103ab565b6103a757610b9581610d64565b610ba0836020610d76565b604051602001610bb192919061111f565b60408051601f198184030181529082905262461bcd60e51b825261039491600401611194565b60a15460405163a52873ef60e01b8152600481018590526000916001600160a01b03169063a52873ef9060240160206040518083038186803b158015610c1c57600080fd5b505afa158015610c30573d6000803e3d6000fd5b505050506040513d601f19601f82011682018060405250810190610c5491906110c7565b905060008111610c9c5760405162461bcd60e51b8152602060048201526013602482015272125b9d985b1a59081c995b9d08185b5bdd5b9d606a1b6044820152606401610394565b60a25460405163d1660f9960e01b81526001600160a01b0385811660048301528481166024830152604482018490529091169063d1660f9990606401602060405180830381600087803b158015610cf257600080fd5b505af1158015610d06573d6000803e3d6000fd5b505050506040513d601f19601f82011682018060405250810190610d2a91906110fd565b6105b75760405162461bcd60e51b815260206004820152600b60248201526a14995b9d0819985a5b195960aa1b6044820152606401610394565b606061023c6001600160a01b03831660145b60606000610d858360026111bd565b610d909060026111dc565b67ffffffffffffffff811115610da857610da86111f4565b6040519080825280601f01601f191660200182016040528015610dd2576020820181803683370190505b509050600360fc1b81600081518110610ded57610ded6110b1565b60200101906001600160f81b031916908160001a905350600f60fb1b81600181518110610e1c57610e1c6110b1565b60200101906001600160f81b031916908160001a9053506000610e408460026111bd565b610e4b9060016111dc565b90505b6001811115610ec3576f181899199a1a9b1b9c1cb0b131b232b360811b85600f1660108110610e7f57610e7f6110b1565b1a60f81b828281518110610e9557610e956110b1565b60200101906001600160f81b031916908160001a90535060049490941c93610ebc8161120a565b9050610e4e565b508315610f125760405162461bcd60e51b815260206004820181905260248201527f537472696e67733a20686578206c656e67746820696e73756666696369656e746044820152606401610394565b9392505050565b600060208284031215610f2b57600080fd5b81356001600160e01b031981168114610f1257600080fd5b600060208284031215610f5557600080fd5b5035919050565b6001600160a01b038116811461078d57600080fd5b60008060408385031215610f8457600080fd5b823591506020830135610f9681610f5c565b809150509250929050565b634e487b7160e01b600052602160045260246000fd5b60005b83811015610fd2578181015183820152602001610fba565b838111156105b75750506000910152565b60008151808452610ffb816020860160208601610fb7565b601f01601f19169290920160200192915050565b60006006861061102f57634e487b7160e01b600052602160045260246000fd5b858252608060208301526110466080830186610fe3565b6040830194909452506060015292915050565b60006020828403121561106b57600080fd5b8135610f1281610f5c565b600181811c9082168061108a57607f821691505b602082108114156110ab57634e487b7160e01b600052602260045260246000fd5b50919050565b634e487b7160e01b600052603260045260246000fd5b6000602082840312156110d957600080fd5b5051919050565b6000602082840312156110f257600080fd5b8151610f1281610f5c565b60006020828403121561110f57600080fd5b81518015158114610f1257600080fd5b7f416363657373436f6e74726f6c3a206163636f756e7420000000000000000000815260008351611157816017850160208801610fb7565b7001034b99036b4b9b9b4b733903937b6329607d1b6017918401918201528351611188816028840160208801610fb7565b01602801949350505050565b602081526000610f126020830184610fe3565b634e487b7160e01b600052601160045260246000fd5b60008160001904831182151516156111d7576111d76111a7565b500290565b600082198211156111ef576111ef6111a7565b500190565b634e487b7160e01b600052604160045260246000fd5b600081611219576112196111a7565b50600019019056fea26469706673582212206586f56507b7c03fc6442ffb0ae6ae5bf820e6b2b906ed9e2a72d854ce8f1ddc64736f6c63430008090033",
  "linkReferences": {},
  "deployedLinkReferences": {}
}