{"contracts/Board.sol":{"Board":{"abi":[{"inputs":[{"internalType":"address","name":"_propertyAddress","type":"address"},{"internalType":"address","name":"_tokenAddress","type":"address"}],"stateMutability":"nonpayable","type":"constructor"},{"anonymous":false,"inputs":[{"indexed":true,"internalType":"bytes32","name":"role","type":"bytes32"},{"indexed":true,"internalType":"bytes32","name":"previousAdminRole","type":"bytes32"},{"indexed":true,"internalType":"bytes32","name":"newAdminRole","type":"bytes32"}],"name":"RoleAdminChanged","type":"event"},{"anonymous":false,"inputs":[{"indexed":true,"internalType":"bytes32","name":"role","type":"bytes32"},{"indexed":true,"internalType":"address","name":"account","type":"address"},{"indexed":true,"internalType":"address","name":"sender","type":"address"}],"name":"RoleGranted","type":"event"},{"anonymous":false,"inputs":[{"indexed":true,"internalType":"bytes32","name":"role","type":"bytes32"},{"indexed":true,"internalType":"address","name":"account","type":"address"},{"indexed":true,"internalType":"address","name":"sender","type":"address"}],"name":"RoleRevoked","type":"event"},{"inputs":[],"name":"DEFAULT_ADMIN_ROLE","outputs":[{"internalType":"bytes32","name":"","type":"bytes32"}],"stateMutability":"view","type":"function"},{"inputs":[],"name":"GAME_CONTRACT","outputs":[{"internalType":"bytes32","name":"","type":"bytes32"}],"stateMutability":"view","type":"function"},{"inputs":[{"internalType":"bytes32","name":"role","type":"bytes32"}],"name":"getRoleAdmin","outputs":[{"internalType":"bytes32","name":"","type":"bytes32"}],"stateMutability":"view","type":"function"},{"inputs":[{"internalType":"address","name":"game","type":"address"}],"name":"grantGameRole","outputs":[],"stateMutability":"nonpayable","type":"function"},{"inputs":[{"internalType":"bytes32","name":"role","type":"bytes32"},{"internalType":"address","name":"account","type":"address"}],"name":"grantRole","outputs":[],"stateMutability":"nonpayable","type":"function"},{"inputs":[{"internalType":"uint256","name":"position","type":"uint256"},{"internalType":"address","name":"player","type":"address"}],"name":"handleLandingEffect","outputs":[],"stateMutability":"nonpayable","type":"function"},{"inputs":[{"internalType":"bytes32","name":"role","type":"bytes32"},{"internalType":"address","name":"account","type":"address"}],"name":"hasRole","outputs":[{"internalType":"bool","name":"","type":"bool"}],"stateMutability":"view","type":"function"},{"inputs":[],"name":"propertyContract","outputs":[{"internalType":"contract IMonopolyProperty","name":"","type":"address"}],"stateMutability":"view","type":"function"},{"inputs":[{"internalType":"bytes32","name":"role","type":"bytes32"},{"internalType":"address","name":"account","type":"address"}],"name":"renounceRole","outputs":[],"stateMutability":"nonpayable","type":"function"},{"inputs":[{"internalType":"bytes32","name":"role","type":"bytes32"},{"internalType":"address","name":"account","type":"address"}],"name":"revokeRole","outputs":[],"stateMutability":"nonpayable","type":"function"},{"inputs":[{"internalType":"bytes4","name":"interfaceId","type":"bytes4"}],"name":"supportsInterface","outputs":[{"internalType":"bool","name":"","type":"bool"}],"stateMutability":"view","type":"function"},{"inputs":[{"internalType":"uint256","name":"","type":"uint256"}],"name":"tiles","outputs":[{"internalType":"enum Board.TileType","name":"tileType","type":"uint8"},{"internalType":"string","name":"name","type":"string"},{"internalType":"uint256","name":"value","type":"uint256"},{"internalType":"uint256","name":"linkedPropertyId","type":"uint256"}],"stateMutability":"view","type":"function"},{"inputs":[],"name":"tokenContract","outputs":[{"internalType":"contract ISkipLabToken","name":"","type":"address"}],"stateMutability":"view","type":"function"}],"evm":{"bytecode":{"linkReferences":{},"object":"60806040523480156200001157600080fd5b506040516200192f3803806200192f833981016040819052620000349162000627565b6200004160003362000090565b6200004e60003062000090565b60a180546001600160a01b038085166001600160a01b03199283161790925560a280549284169290911691909117905562000088620000a0565b5050620006c8565b6200009c8282620004c4565b5050565b604080516080810190915280600081526020016040518060400160405280600581526020016414dd185c9d60da1b815250815260200160c8815260200160008152506001600060288110620000f957620000f962000675565b6004020160008201518160000160006101000a81548160ff021916908360058111156200012a576200012a6200065f565b0217905550602082810151805162000149926001850192019062000564565b506040828101516002830155606090920151600390910155805160808101909152806001815260200160405180604001604052806003815260200162484b5560e81b8152508152602001603c8152602001600181525060018060288110620001b557620001b562000675565b6004020160008201518160000160006101000a81548160ff02191690836005811115620001e657620001e66200065f565b0217905550602082810151805162000205926001850192019062000564565b506040828101516002830155606090920151600391820155815160808101909252819081526020016040518060400160405280600f81526020016e10dbdb5b5d5b9a5d1e4810da195cdd608a1b815250815260200160008152602001600081525060016002602881106200027d576200027d62000675565b6004020160008201518160000160006101000a81548160ff02191690836005811115620002ae57620002ae6200065f565b02179055506020828101518051620002cd926001850192019062000564565b506040828101516002838101919091556060938401516003909301929092558051608081018252600180825282518084018452600781526610d95b9d1c985b60ca1b602082810191909152830152603c92820192909252928301919091528151600d80549092839160ff1916908360058111156200034f576200034f6200065f565b021790555060208281015180516200036e926001850192019062000564565b50604082810151600283015560609283015160039092019190915580516080810182526004815281518083018352600a815269092dcc6dedaca40a8c2f60b31b60208281019190915282015260c891810191909152600091810191909152805160118054909190829060ff19166001836005811115620003f257620003f26200065f565b0217905550602082810151805162000411926001850192019062000564565b5060408281015160028301556060928301516003928301558051608081018252600180825282518084018452600781526629ba30ba34b7b760c91b60208281019190915283015260c892820192909252928301919091528151601580549092839160ff1916908360058111156200048c576200048c6200065f565b02179055506020828101518051620004ab926001850192019062000564565b5060408201516002820155606090910151600390910155565b6000828152602081815260408083206001600160a01b038516845290915290205460ff166200009c576000828152602081815260408083206001600160a01b03851684529091529020805460ff19166001179055620005203390565b6001600160a01b0316816001600160a01b0316837f2f8788117e7eff1d82e926ec794901d17c78024a50270940304540a733656f0d60405160405180910390a45050565b82805462000572906200068b565b90600052602060002090601f016020900481019282620005965760008555620005e1565b82601f10620005b157805160ff1916838001178555620005e1565b82800160010185558215620005e1579182015b82811115620005e1578251825591602001919060010190620005c4565b50620005ef929150620005f3565b5090565b5b80821115620005ef5760008155600101620005f4565b80516001600160a01b03811681146200062257600080fd5b919050565b600080604083850312156200063b57600080fd5b62000646836200060a565b915062000656602084016200060a565b90509250929050565b634e487b7160e01b600052602160045260246000fd5b634e487b7160e01b600052603260045260246000fd5b600181811c90821680620006a057607f821691505b60208210811415620006c257634e487b7160e01b600052602260045260246000fd5b50919050565b61125780620006d86000396000f3fe608060405234801561001057600080fd5b50600436106100cf5760003560e01c806377e1e4d71161008c57806396ce55bc1161006657806396ce55bc146101f0578063a217fddf14610203578063d547741f1461020b578063f1d19e071461021e57600080fd5b806377e1e4d7146101a35780638fca9673146101ca57806391d14854146101dd57600080fd5b806301ffc9a7146100d4578063248a9ca3146100fc5780632f2ff15d1461012d5780632fd2e7421461014257806336568abe1461016557806355a373d614610178575b600080fd5b6100e76100e2366004610f19565b610231565b60405190151581526020015b60405180910390f35b61011f61010a366004610f43565b60009081526020819052604090206001015490565b6040519081526020016100f3565b61014061013b366004610f71565b610242565b005b610155610150366004610f43565b61026c565b6040516100f3949392919061100f565b610140610173366004610f71565b610328565b60a25461018b906001600160a01b031681565b6040516001600160a01b0390911681526020016100f3565b61011f7f78a8708a3a199518d3505c5ab9ae6d9c4738044ca9641d04e1c8b4d0e64941af81565b60a15461018b906001600160a01b031681565b6100e76101eb366004610f71565b6103ab565b6101406101fe366004610f71565b6103d4565b61011f600081565b610140610219366004610f71565b6105bd565b61014061022c366004611059565b6105e2565b600061023c8261074e565b92915050565b60008281526020819052604090206001015461025d81610783565b6102678383610790565b505050565b6001816028811061027c57600080fd5b60040201805460018201805460ff90921693509061029990611076565b80601f01602080910402602001604051908101604052809291908181526020018280546102c590611076565b80156103125780601f106102e757610100808354040283529160200191610312565b820191906000526020600020905b8154815290600101906020018083116102f557829003601f168201915b5050505050908060020154908060030154905084565b6001600160a01b038116331461039d5760405162461bcd60e51b815260206004820152602f60248201527f416363657373436f6e74726f6c3a2063616e206f6e6c792072656e6f756e636560448201526e103937b632b9903337b91039b2b63360891b60648201526084015b60405180910390fd5b6103a78282610814565b5050565b6000918252602082815260408084206001600160a01b0393909316845291905290205460ff1690565b7f78a8708a3a199518d3505c5ab9ae6d9c4738044ca9641d04e1c8b4d0e64941af6103fe81610783565b602883106104415760405162461bcd60e51b815260206004820152601060248201526f24b73b30b634b2103837b9b4ba34b7b760811b6044820152606401610394565b600060018460288110610456576104566110b1565b6040805160808101909152600491909102919091018054829060ff16600581111561048357610483610fa1565b600581111561049457610494610fa1565b81526020016001820180546104a890611076565b80601f01602080910402602001604051908101604052809291908181526020018280546104d490611076565b80156105215780601f106104f657610100808354040283529160200191610521565b820191906000526020600020905b81548152906001019060200180831161050457829003601f168201915b505050918352505060028201546020820152600390910154604090910152905060018151600581111561055657610556610fa1565b141561056f5761056a816060015184610879565b6105b7565b60028151600581111561058457610584610fa1565b14156105935761056a83610acb565b6003815160058111156105a8576105a8610fa1565b14156105b7576105b783610b3d565b50505050565b6000828152602081905260409020600101546105d881610783565b6102678383610814565b60006105ed81610783565b6001600160a01b03821661063a5760405162461bcd60e51b8152602060048201526014602482015273496e76616c69642067616d65206164647265737360601b6044820152606401610394565b6106647f78a8708a3a199518d3505c5ab9ae6d9c4738044ca9641d04e1c8b4d0e64941af83610790565b60a254604080516355a0038360e11b815290516000926001600160a01b03169163ab400706916004808301926020929190829003018186803b1580156106a957600080fd5b505afa1580156106bd573d6000803e3d6000fd5b505050506040513d601f19601f820116820180604052508101906106e191906110c7565b60a254604051632f2ff15d60e01b8152600481018390526001600160a01b038681166024830152929350911690632f2ff15d90604401600060405180830381600087803b15801561073157600080fd5b505af1158015610745573d6000803e3d6000fd5b50505050505050565b60006001600160e01b03198216637965db0b60e01b148061023c57506301ffc9a760e01b6001600160e01b031983161461023c565b61078d8133610b7e565b50565b61079a82826103ab565b6103a7576000828152602081815260408083206001600160a01b03851684529091529020805460ff191660011790556107d03390565b6001600160a01b0316816001600160a01b0316837f2f8788117e7eff1d82e926ec794901d17c78024a50270940304540a733656f0d60405160405180910390a45050565b61081e82826103ab565b156103a7576000828152602081815260408083206001600160a01b0385168085529252808320805460ff1916905551339285917ff6391f5c32d9c69d2a47ea670b442974b53935d1edc7fd64eb21e047a839171b9190a45050565b60a1546040516331a9108f60e11b8152600481018490526000916001600160a01b031690636352211e9060240160206040518083038186803b1580156108be57600080fd5b505afa1580156108d2573d6000803e3d6000fd5b505050506040513d601f19601f820116820180604052508101906108f691906110e0565b90506001600160a01b038116610ac05760a1546040516301e25d4b60e21b8152600481018590526000916001600160a01b031690630789752c9060240160206040518083038186803b15801561094b57600080fd5b505afa15801561095f573d6000803e3d6000fd5b505050506040513d601f19601f8201168201806040525081019061098391906110c7565b60a25460405163d1660f9960e01b81526001600160a01b0386811660048301523060248301526044820184905292935091169063d1660f9990606401602060405180830381600087803b1580156109d957600080fd5b505af11580156109ed573d6000803e3d6000fd5b505050506040513d601f19601f82011682018060405250810190610a1191906110fd565b610a4e5760405162461bcd60e51b815260206004820152600e60248201526d14185e5b595b9d0819985a5b195960921b6044820152606401610394565b60a154604051632142170760e11b81523060048201526001600160a01b03858116602483015260448201879052909116906342842e0e90606401600060405180830381600087803b158015610aa257600080fd5b505af1158015610ab6573d6000803e3d6000fd5b5050505050505050565b610267838383610bd7565b60a254604051634eb9029960e01b81526001600160a01b03838116600483015268056bc75e2d63100000602483015290911690634eb90299906044015b600060405180830381600087803b158015610b2257600080fd5b505af1158015610b36573d6000803e3d6000fd5b5050505050565b60a254604051634eb9029960e01b81526001600160a01b0383811660048301526802b5e3af16b1880000602483015290911690634eb9029990604401610b08565b610b8882826103ab565b6103a757610b9581610d64565b610ba0836020610d76565b604051602001610bb192919061111f565b60408051601f198184030181529082905262461bcd60e51b825261039491600401611194565b60a15460405163a52873ef60e01b8152600481018590526000916001600160a01b03169063a52873ef9060240160206040518083038186803b158015610c1c57600080fd5b505afa158015610c30573d6000803e3d6000fd5b505050506040513d601f19601f82011682018060405250810190610c5491906110c7565b905060008111610c9c5760405162461bcd60e51b8152602060048201526013602482015272125b9d985b1a59081c995b9d08185b5bdd5b9d606a1b6044820152606401610394565b60a25460405163d1660f9960e01b81526001600160a01b0385811660048301528481166024830152604482018490529091169063d1660f9990606401602060405180830381600087803b158015610cf257600080fd5b505af1158015610d06573d6000803e3d6000fd5b505050506040513d601f19601f82011682018060405250810190610d2a91906110fd565b6105b75760405162461bcd60e51b815260206004820152600b60248201526a14995b9d0819985a5b195960aa1b6044820152606401610394565b606061023c6001600160a01b03831660145b60606000610d858360026111bd565b610d909060026111dc565b67ffffffffffffffff811115610da857610da86111f4565b6040519080825280601f01601f191660200182016040528015610dd2576020820181803683370190505b509050600360fc1b81600081518110610ded57610ded6110b1565b60200101906001600160f81b031916908160001a905350600f60fb1b81600181518110610e1c57610e1c6110b1565b60200101906001600160f81b031916908160001a9053506000610e408460026111bd565b610e4b9060016111dc565b90505b6001811115610ec3576f181899199a1a9b1b9c1cb0b131b232b360811b85600f1660108110610e7f57610e7f6110b1565b1a60f81b828281518110610e9557610e956110b1565b60200101906001600160f81b031916908160001a90535060049490941c93610ebc8161120a565b9050610e4e565b508315610f125760405162461bcd60e51b815260206004820181905260248201527f537472696e67733a20686578206c656e67746820696e73756666696369656e746044820152606401610394565b9392505050565b600060208284031215610f2b57600080fd5b81356001600160e01b031981168114610f1257600080fd5b600060208284031215610f5557600080fd5b5035919050565b6001600160a01b038116811461078d57600080fd5b60008060408385031215610f8457600080fd5b823591506020830135610f9681610f5c565b809150509250929050565b634e487b7160e01b600052602160045260246000fd5b60005b83811015610fd2578181015183820152602001610fba565b838111156105b75750506000910152565b60008151808452610ffb816020860160208601610fb7565b601f01601f19169290920160200192915050565b60006006861061102f57634e487b7160e01b600052602160045260246000fd5b858252608060208301526110466080830186610fe3565b6040830194909452506060015292915050565b60006020828403121561106b57600080fd5b8135610f1281610f5c565b600181811c9082168061108a57607f821691505b602082108114156110ab57634e487b7160e01b600052602260045260246000fd5b50919050565b634e487b7160e01b600052603260045260246000fd5b6000602082840312156110d957600080fd5b5051919050565b6000602082840312156110f257600080fd5b8151610f1281610f5c565b60006020828403121561110f57600080fd5b81518015158114610f1257600080fd5b7f416363657373436f6e74726f6c3a206163636f756e7420000000000000000000815260008351611157816017850160208801610fb7565b7001034b99036b4b9b9b4b733903937b6329607d1b6017918401918201528351611188816028840160208801610fb7565b01602801949350505050565b602081526000610f126020830184610fe3565b634e487b7160e01b600052601160045260246000fd5b60008160001904831182151516156111d7576111d76111a7565b500290565b600082198211156111ef576111ef6111a7565b500190565b634e487b7160e01b600052604160045260246000fd5b600081611219576112196111a7565b50600019019056fea26469706673582212206586f56507b7c03fc6442ffb0ae6ae5bf820e6b2b906ed9e2a72d854ce8f1ddc64736f6c63430008090033","opcodes":"PUSH1 0x80 PUSH1 0x40 MSTORE CALLVALUE DUP1 ISZERO PUSH3 0x11 JUMPI PUSH1 0x0 DUP1 REVERT JUMPDEST POP PUSH1 0x40 MLOAD PUSH3 0x192F CODESIZE SUB DUP1 PUSH3 0x192F DUP4 CODECOPY DUP2 ADD PUSH1 0x40 DUP2 SWAP1 MSTORE PUSH3 0x34 SWAP2 PUSH3 0x627 JUMP JUMPDEST PUSH3 0x41 PUSH1 0x0 CALLER PUSH3 0x90 JUMP JUMPDEST PUSH3 0x4E PUSH1 0x0 ADDRESS PUSH3 0x90 JUMP JUMPDEST PUSH1 0xA1 DUP1 SLOAD PUSH1 0x1 PUSH1 0x1 PUSH1 0xA0 SHL SUB DUP1 DUP6 AND PUSH1 0x1 PUSH1 0x1 PUSH1 0xA0 SHL SUB NOT SWAP3 DUP4 AND OR SWAP1 SWAP3 SSTORE PUSH1 0xA2 DUP1 SLOAD SWAP3 DUP5 AND SWAP3 SWAP1 SWAP2 AND SWAP2 SWAP1 SWAP2 OR SWAP1 SSTORE PUSH3 0x88 PUSH3 0xA0 JUMP JUMPDEST POP POP PUSH3 0x6C8 JUMP JUMPDEST PUSH3 0x9C DUP3 DUP3 PUSH3 0x4C4 JUMP JUMPDEST POP POP JUMP JUMPDEST PUSH1 0x40 DUP1 MLOAD PUSH1 0x80 DUP2 ADD SWAP1 SWAP2 MSTORE DUP1 PUSH1 0x0 DUP2 MSTORE PUSH1 0x20 ADD PUSH1 0x40 MLOAD DUP1 PUSH1 0x40 ADD PUSH1 0x40 MSTORE DUP1 PUSH1 0x5 DUP2 MSTORE PUSH1 0x20 ADD PUSH5 0x14DD185C9D PUSH1 0xDA SHL DUP2 MSTORE POP DUP2 MSTORE PUSH1 0x20 ADD PUSH1 0xC8 DUP2 MSTORE PUSH1 0x20 ADD PUSH1 0x0 DUP2 MSTORE POP PUSH1 0x1 PUSH1 0x0 PUSH1 0x28 DUP2 LT PUSH3 0xF9 JUMPI PUSH3 0xF9 PUSH3 0x675 JUMP JUMPDEST PUSH1 0x4 MUL ADD PUSH1 0x0 DUP3 ADD MLOAD DUP2 PUSH1 0x0 ADD PUSH1 0x0 PUSH2 0x100 EXP DUP2 SLOAD DUP2 PUSH1 0xFF MUL NOT AND SWAP1 DUP4 PUSH1 0x5 DUP2 GT ISZERO PUSH3 0x12A JUMPI PUSH3 0x12A PUSH3 0x65F JUMP JUMPDEST MUL OR SWAP1 SSTORE POP PUSH1 0x20 DUP3 DUP2 ADD MLOAD DUP1 MLOAD PUSH3 0x149 SWAP3 PUSH1 0x1 DUP6 ADD SWAP3 ADD SWAP1 PUSH3 0x564 JUMP JUMPDEST POP PUSH1 0x40 DUP3 DUP2 ADD MLOAD PUSH1 0x2 DUP4 ADD SSTORE PUSH1 0x60 SWAP1 SWAP3 ADD MLOAD PUSH1 0x3 SWAP1 SWAP2 ADD SSTORE DUP1 MLOAD PUSH1 0x80 DUP2 ADD SWAP1 SWAP2 MSTORE DUP1 PUSH1 0x1 DUP2 MSTORE PUSH1 0x20 ADD PUSH1 0x40 MLOAD DUP1 PUSH1 0x40 ADD PUSH1 0x40 MSTORE DUP1 PUSH1 0x3 DUP2 MSTORE PUSH1 0x20 ADD PUSH3 0x484B55 PUSH1 0xE8 SHL DUP2 MSTORE POP DUP2 MSTORE PUSH1 0x20 ADD PUSH1 0x3C DUP2 MSTORE PUSH1 0x20 ADD PUSH1 0x1 DUP2 MSTORE POP PUSH1 0x1 DUP1 PUSH1 0x28 DUP2 LT PUSH3 0x1B5 JUMPI PUSH3 0x1B5 PUSH3 0x675 JUMP JUMPDEST PUSH1 0x4 MUL ADD PUSH1 0x0 DUP3 ADD MLOAD DUP2 PUSH1 0x0 ADD PUSH1 0x0 PUSH2 0x100 EXP DUP2 SLOAD DUP2 PUSH1 0xFF MUL NOT AND SWAP1 DUP4 PUSH1 0x5 DUP2 GT ISZERO PUSH3 0x1E6 JUMPI PUSH3 0x1E6 PUSH3 0x65F JUMP JUMPDEST MUL OR SWAP1 SSTORE POP PUSH1 0x20 DUP3 DUP2 ADD MLOAD DUP1 MLOAD PUSH3 0x205 SWAP3 PUSH1 0x1 DUP6 ADD SWAP3 ADD SWAP1 PUSH3 0x564 JUMP JUMPDEST POP PUSH1 0x40 DUP3 DUP2 ADD MLOAD PUSH1 0x2 DUP4 ADD SSTORE PUSH1 0x60 SWAP1 SWAP3 ADD MLOAD PUSH1 0x3 SWAP2 DUP3 ADD SSTORE DUP2 MLOAD PUSH1 0x80 DUP2 ADD SWAP1 SWAP3 MSTORE DUP2 SWAP1 DUP2 MSTORE PUSH1 0x20 ADD PUSH1 0x40 MLOAD DUP1 PUSH1 0x40 ADD PUSH1 0x40 MSTORE DUP1 PUSH1 0xF DUP2 MSTORE PUSH1 0x20 ADD PUSH15 0x10DBDB5B5D5B9A5D1E4810DA195CDD PUSH1 0x8A SHL DUP2 MSTORE POP DUP2 MSTORE PUSH1 0x20 ADD PUSH1 0x0 DUP2 MSTORE PUSH1 0x20 ADD PUSH1 0x0 DUP2 MSTORE POP PUSH1 0x1 PUSH1 0x2 PUSH1 0x28 DUP2 LT PUSH3 0x27D JUMPI PUSH3 0x27D PUSH3 0x675 JUMP JUMPDEST PUSH1 0x4 MUL ADD PUSH1 0x0 DUP3 ADD MLOAD DUP2 PUSH1 0x0 ADD PUSH1 0x0 PUSH2 0x100 EXP DUP2 SLOAD DUP2 PUSH1 0xFF MUL NOT AND SWAP1 DUP4 PUSH1 0x5 DUP2 GT ISZERO PUSH3 0x2AE JUMPI PUSH3 0x2AE PUSH3 0x65F JUMP JUMPDEST MUL OR SWAP1 SSTORE POP PUSH1 0x20 DUP3 DUP2 ADD MLOAD DUP1 MLOAD PUSH3 0x2CD SWAP3 PUSH1 0x1 DUP6 ADD SWAP3 ADD SWAP1 PUSH3 0x564 JUMP JUMPDEST POP PUSH1 0x40 DUP3 DUP2 ADD MLOAD PUSH1 0x2 DUP4 DUP2 ADD SWAP2 SWAP1 SWAP2 SSTORE PUSH1 0x60 SWAP4 DUP5 ADD MLOAD PUSH1 0x3 SWAP1 SWAP4 ADD SWAP3 SWAP1 SWAP3 SSTORE DUP1 MLOAD PUSH1 0x80 DUP2 ADD DUP3 MSTORE PUSH1 0x1 DUP1 DUP3 MSTORE DUP3 MLOAD DUP1 DUP5 ADD DUP5 MSTORE PUSH1 0x7 DUP2 MSTORE PUSH7 0x10D95B9D1C985B PUSH1 0xCA SHL PUSH1 0x20 DUP3 DUP2 ADD SWAP2 SWAP1 SWAP2 MSTORE DUP4 ADD MSTORE PUSH1 0x3C SWAP3 DUP3 ADD SWAP3 SWAP1 SWAP3 MSTORE SWAP3 DUP4 ADD SWAP2 SWAP1 SWAP2 MSTORE DUP2 MLOAD PUSH1 0xD DUP1 SLOAD SWAP1 SWAP3 DUP4 SWAP2 PUSH1 0xFF NOT AND SWAP1 DUP4 PUSH1 0x5 DUP2 GT ISZERO PUSH3 0x34F JUMPI PUSH3 0x34F PUSH3 0x65F JUMP JUMPDEST MUL OR SWAP1 SSTORE POP PUSH1 0x20 DUP3 DUP2 ADD MLOAD DUP1 MLOAD PUSH3 0x36E SWAP3 PUSH1 0x1 DUP6 ADD SWAP3 ADD SWAP1 PUSH3 0x564 JUMP JUMPDEST POP PUSH1 0x40 DUP3 DUP2 ADD MLOAD PUSH1 0x2 DUP4 ADD SSTORE PUSH1 0x60 SWAP3 DUP4 ADD MLOAD PUSH1 0x3 SWAP1 SWAP3 ADD SWAP2 SWAP1 SWAP2 SSTORE DUP1 MLOAD PUSH1 0x80 DUP2 ADD DUP3 MSTORE PUSH1 0x4 DUP2 MSTORE DUP2 MLOAD DUP1 DUP4 ADD DUP4 MSTORE PUSH1 0xA DUP2 MSTORE PUSH10 0x92DCC6DEDACA40A8C2F PUSH1 0xB3 SHL PUSH1 0x20 DUP3 DUP2 ADD SWAP2 SWAP1 SWAP2 MSTORE DUP3 ADD MSTORE PUSH1 0xC8 SWAP2 DUP2 ADD SWAP2 SWAP1 SWAP2 MSTORE PUSH1 0x0 SWAP2 DUP2 ADD SWAP2 SWAP1 SWAP2 MSTORE DUP1 MLOAD PUSH1 0x11 DUP1 SLOAD SWAP1 SWAP2 SWAP1 DUP3 SWAP1 PUSH1 0xFF NOT AND PUSH1 0x1 DUP4 PUSH1 0x5 DUP2 GT ISZERO PUSH3 0x3F2 JUMPI PUSH3 0x3F2 PUSH3 0x65F JUMP JUMPDEST MUL OR SWAP1 SSTORE POP PUSH1 0x20 DUP3 DUP2 ADD MLOAD DUP1 MLOAD PUSH3 0x411 SWAP3 PUSH1 0x1 DUP6 ADD SWAP3 ADD SWAP1 PUSH3 0x564 JUMP JUMPDEST POP PUSH1 0x40 DUP3 DUP2 ADD MLOAD PUSH1 0x2 DUP4 ADD SSTORE PUSH1 0x60 SWAP3 DUP4 ADD MLOAD PUSH1 0x3 SWAP3 DUP4 ADD SSTORE DUP1 MLOAD PUSH1 0x80 DUP2 ADD DUP3 MSTORE PUSH1 0x1 DUP1 DUP3 MSTORE DUP3 MLOAD DUP1 DUP5 ADD DUP5 MSTORE PUSH1 0x7 DUP2 MSTORE PUSH7 0x29BA30BA34B7B7 PUSH1 0xC9 SHL PUSH1 0x20 DUP3 DUP2 ADD SWAP2 SWAP1 SWAP2 MSTORE DUP4 ADD MSTORE PUSH1 0xC8 SWAP3 DUP3 ADD SWAP3 SWAP1 SWAP3 MSTORE SWAP3 DUP4 ADD SWAP2 SWAP1 SWAP2 MSTORE DUP2 MLOAD PUSH1 0x15 DUP1 SLOAD SWAP1 SWAP3 DUP4 SWAP2 PUSH1 0xFF NOT AND SWAP1 DUP4 PUSH1 0x5 DUP2 GT ISZERO PUSH3 0x48C JUMPI PUSH3 0x48C PUSH3 0x65F JUMP JUMPDEST MUL OR SWAP1 SSTORE POP PUSH1 0x20 DUP3 DUP2 ADD MLOAD DUP1 MLOAD PUSH3 0x4AB SWAP3 PUSH1 0x1 DUP6 ADD SWAP3 ADD SWAP1 PUSH3 0x564 JUMP JUMPDEST POP PUSH1 0x40 DUP3 ADD MLOAD PUSH1 0x2 DUP3 ADD SSTORE PUSH1 0x60 SWAP1 SWAP2 ADD MLOAD PUSH1 0x3 SWAP1 SWAP2 ADD SSTORE JUMP JUMPDEST PUSH1 0x0 DUP3 DUP2 MSTORE PUSH1 0x20 DUP2 DUP2 MSTORE PUSH1 0x40 DUP1 DUP4 KECCAK256 PUSH1 0x1 PUSH1 0x1 PUSH1 0xA0 SHL SUB DUP6 AND DUP5 MSTORE SWAP1 SWAP2 MSTORE SWAP1 KECCAK256 SLOAD PUSH1 0xFF AND PUSH3 0x9C JUMPI PUSH1 0x0 DUP3 DUP2 MSTORE PUSH1 0x20 DUP2 DUP2 MSTORE PUSH1 0x40 DUP1 DUP4 KECCAK256 PUSH1 0x1 PUSH1 0x1 PUSH1 0xA0 SHL SUB DUP6 AND DUP5 MSTORE SWAP1 SWAP2 MSTORE SWAP1 KECCAK256 DUP1 SLOAD PUSH1 0xFF NOT AND PUSH1 0x1 OR SWAP1 SSTORE PUSH3 0x520 CALLER SWAP1 JUMP JUMPDEST PUSH1 0x1 PUSH1 0x1 PUSH1 0xA0 SHL SUB AND DUP2 PUSH1 0x1 PUSH1 0x1 PUSH1 0xA0 SHL SUB AND DUP4 PUSH32 0x2F8788117E7EFF1D82E926EC794901D17C78024A50270940304540A733656F0D PUSH1 0x40 MLOAD PUSH1 0x40 MLOAD DUP1 SWAP2 SUB SWAP1 LOG4 POP POP JUMP JUMPDEST DUP3 DUP1 SLOAD PUSH3 0x572 SWAP1 PUSH3 0x68B JUMP JUMPDEST SWAP1 PUSH1 0x0 MSTORE PUSH1 0x20 PUSH1 0x0 KECCAK256 SWAP1 PUSH1 0x1F ADD PUSH1 0x20 SWAP1 DIV DUP2 ADD SWAP3 DUP3 PUSH3 0x596 JUMPI PUSH1 0x0 DUP6 SSTORE PUSH3 0x5E1 JUMP JUMPDEST DUP3 PUSH1 0x1F LT PUSH3 0x5B1 JUMPI DUP1 MLOAD PUSH1 0xFF NOT AND DUP4 DUP1 ADD OR DUP6 SSTORE PUSH3 0x5E1 JUMP JUMPDEST DUP3 DUP1 ADD PUSH1 0x1 ADD DUP6 SSTORE DUP3 ISZERO PUSH3 0x5E1 JUMPI SWAP2 DUP3 ADD JUMPDEST DUP3 DUP2 GT ISZERO PUSH3 0x5E1 JUMPI DUP3 MLOAD DUP3 SSTORE SWAP2 PUSH1 0x20 ADD SWAP2 SWAP1 PUSH1 0x1 ADD SWAP1 PUSH3 0x5C4 JUMP JUMPDEST POP PUSH3 0x5EF SWAP3 SWAP2 POP PUSH3 0x5F3 JUMP JUMPDEST POP SWAP1 JUMP JUMPDEST JUMPDEST DUP1 DUP3 GT ISZERO PUSH3 0x5EF JUMPI PUSH1 0x0 DUP2 SSTORE PUSH1 0x1 ADD PUSH3 0x5F4 JUMP JUMPDEST DUP1 MLOAD PUSH1 0x1 PUSH1 0x1 PUSH1 0xA0 SHL SUB DUP2 AND DUP2 EQ PUSH3 0x622 JUMPI PUSH1 0x0 DUP1 REVERT JUMPDEST SWAP2 SWAP1 POP JUMP JUMPDEST PUSH1 0x0 DUP1 PUSH1 0x40 DUP4 DUP6 SUB SLT ISZERO PUSH3 0x63B JUMPI PUSH1 0x0 DUP1 REVERT JUMPDEST PUSH3 0x646 DUP4 PUSH3 0x60A JUMP JUMPDEST SWAP2 POP PUSH3 0x656 PUSH1 0x20 DUP5 ADD PUSH3 0x60A JUMP JUMPDEST SWAP1 POP SWAP3 POP SWAP3 SWAP1 POP JUMP JUMPDEST PUSH4 0x4E487B71 PUSH1 0xE0 SHL PUSH1 0x0 MSTORE PUSH1 0x21 PUSH1 0x4 MSTORE PUSH1 0x24 PUSH1 0x0 REVERT JUMPDEST PUSH4 0x4E487B71 PUSH1 0xE0 SHL PUSH1 0x0 MSTORE PUSH1 0x32 PUSH1 0x4 MSTORE PUSH1 0x24 PUSH1 0x0 REVERT JUMPDEST PUSH1 0x1 DUP2 DUP2 SHR SWAP1 DUP3 AND DUP1 PUSH3 0x6A0 JUMPI PUSH1 0x7F DUP3 AND SWAP2 POP JUMPDEST PUSH1 0x20 DUP3 LT DUP2 EQ ISZERO PUSH3 0x6C2 JUMPI PUSH4 0x4E487B71 PUSH1 0xE0 SHL PUSH1 0x0 MSTORE PUSH1 0x22 PUSH1 0x4 MSTORE PUSH1 0x24 PUSH1 0x0 REVERT JUMPDEST POP SWAP2 SWAP1 POP JUMP JUMPDEST PUSH2 0x1257 DUP1 PUSH3 0x6D8 PUSH1 0x0 CODECOPY PUSH1 0x0 RETURN INVALID PUSH1 0x80 PUSH1 0x40 MSTORE CALLVALUE DUP1 ISZERO PUSH2 0x10 JUMPI PUSH1 0x0 DUP1 REVERT JUMPDEST POP PUSH1 0x4 CALLDATASIZE LT PUSH2 0xCF JUMPI PUSH1 0x0 CALLDATALOAD PUSH1 0xE0 SHR DUP1 PUSH4 0x77E1E4D7 GT PUSH2 0x8C JUMPI DUP1 PUSH4 0x96CE55BC GT PUSH2 0x66 JUMPI DUP1 PUSH4 0x96CE55BC EQ PUSH2 0x1F0 JUMPI DUP1 PUSH4 0xA217FDDF EQ PUSH2 0x203 JUMPI DUP1 PUSH4 0xD547741F EQ PUSH2 0x20B JUMPI DUP1 PUSH4 0xF1D19E07 EQ PUSH2 0x21E JUMPI PUSH1 0x0 DUP1 REVERT JUMPDEST DUP1 PUSH4 0x77E1E4D7 EQ PUSH2 0x1A3 JUMPI DUP1 PUSH4 0x8FCA9673 EQ PUSH2 0x1CA JUMPI DUP1 PUSH4 0x91D14854 EQ PUSH2 0x1DD JUMPI PUSH1 0x0 DUP1 REVERT JUMPDEST DUP1 PUSH4 0x1FFC9A7 EQ PUSH2 0xD4 JUMPI DUP1 PUSH4 0x248A9CA3 EQ PUSH2 0xFC JUMPI DUP1 PUSH4 0x2F2FF15D EQ PUSH2 0x12D JUMPI DUP1 PUSH4 0x2FD2E742 EQ PUSH2 0x142 JUMPI DUP1 PUSH4 0x36568ABE EQ PUSH2 0x165 JUMPI DUP1 PUSH4 0x55A373D6 EQ PUSH2 0x178 JUMPI JUMPDEST PUSH1 0x0 DUP1 REVERT JUMPDEST PUSH2 0xE7 PUSH2 0xE2 CALLDATASIZE PUSH1 0x4 PUSH2 0xF19 JUMP JUMPDEST PUSH2 0x231 JUMP JUMPDEST PUSH1 0x40 MLOAD SWAP1 ISZERO ISZERO DUP2 MSTORE PUSH1 0x20 ADD JUMPDEST PUSH1 0x40 MLOAD DUP1 SWAP2 SUB SWAP1 RETURN JUMPDEST PUSH2 0x11F PUSH2 0x10A CALLDATASIZE PUSH1 0x4 PUSH2 0xF43 JUMP JUMPDEST PUSH1 0x0 SWAP1 DUP2 MSTORE PUSH1 0x20 DUP2 SWAP1 MSTORE PUSH1 0x40 SWAP1 KECCAK256 PUSH1 0x1 ADD SLOAD SWAP1 JUMP JUMPDEST PUSH1 0x40 MLOAD SWAP1 DUP2 MSTORE PUSH1 0x20 ADD PUSH2 0xF3 JUMP JUMPDEST PUSH2 0x140 PUSH2 0x13B CALLDATASIZE PUSH1 0x4 PUSH2 0xF71 JUMP JUMPDEST PUSH2 0x242 JUMP JUMPDEST STOP JUMPDEST PUSH2 0x155 PUSH2 0x150 CALLDATASIZE PUSH1 0x4 PUSH2 0xF43 JUMP JUMPDEST PUSH2 0x26C JUMP JUMPDEST PUSH1 0x40 MLOAD PUSH2 0xF3 SWAP5 SWAP4 SWAP3 SWAP2 SWAP1 PUSH2 0x100F JUMP JUMPDEST PUSH2 0x140 PUSH2 0x173 CALLDATASIZE PUSH1 0x4 PUSH2 0xF71 JUMP JUMPDEST PUSH2 0x328 JUMP JUMPDEST PUSH1 0xA2 SLOAD PUSH2 0x18B SWAP1 PUSH1 0x1 PUSH1 0x1 PUSH1 0xA0 SHL SUB AND DUP2 JUMP JUMPDEST PUSH1 0x40 MLOAD PUSH1 0x1 PUSH1 0x1 PUSH1 0xA0 SHL SUB SWAP1 SWAP2 AND DUP2 MSTORE PUSH1 0x20 ADD PUSH2 0xF3 JUMP JUMPDEST PUSH2 0x11F PUSH32 0x78A8708A3A199518D3505C5AB9AE6D9C4738044CA9641D04E1C8B4D0E64941AF DUP2 JUMP JUMPDEST PUSH1 0xA1 SLOAD PUSH2 0x18B SWAP1 PUSH1 0x1 PUSH1 0x1 PUSH1 0xA0 SHL SUB AND DUP2 JUMP JUMPDEST PUSH2 0xE7 PUSH2 0x1EB CALLDATASIZE PUSH1 0x4 PUSH2 0xF71 JUMP JUMPDEST PUSH2 0x3AB JUMP JUMPDEST PUSH2 0x140 PUSH2 0x1FE CALLDATASIZE PUSH1 0x4 PUSH2 0xF71 JUMP JUMPDEST PUSH2 0x3D4 JUMP JUMPDEST PUSH2 0x11F PUSH1 0x0 DUP2 JUMP JUMPDEST PUSH2 0x140 PUSH2 0x219 CALLDATASIZE PUSH1 0x4 PUSH2 0xF71 JUMP JUMPDEST PUSH2 0x5BD JUMP JUMPDEST PUSH2 0x140 PUSH2 0x22C CALLDATASIZE PUSH1 0x4 PUSH2 0x1059 JUMP JUMPDEST PUSH2 0x5E2 JUMP JUMPDEST PUSH1 0x0 PUSH2 0x23C DUP3 PUSH2 0x74E JUMP JUMPDEST SWAP3 SWAP2 POP POP JUMP JUMPDEST PUSH1 0x0 DUP3 DUP2 MSTORE PUSH1 0x20 DUP2 SWAP1 MSTORE PUSH1 0x40 SWAP1 KECCAK256 PUSH1 0x1 ADD SLOAD PUSH2 0x25D DUP2 PUSH2 0x783 JUMP JUMPDEST PUSH2 0x267 DUP4 DUP4 PUSH2 0x790 JUMP JUMPDEST POP POP POP JUMP JUMPDEST PUSH1 0x1 DUP2 PUSH1 0x28 DUP2 LT PUSH2 0x27C JUMPI PUSH1 0x0 DUP1 REVERT JUMPDEST PUSH1 0x4 MUL ADD DUP1 SLOAD PUSH1 0x1 DUP3 ADD DUP1 SLOAD PUSH1 0xFF SWAP1 SWAP3 AND SWAP4 POP SWAP1 PUSH2 0x299 SWAP1 PUSH2 0x1076 JUMP JUMPDEST DUP1 PUSH1 0x1F ADD PUSH1 0x20 DUP1 SWAP2 DIV MUL PUSH1 0x20 ADD PUSH1 0x40 MLOAD SWAP1 DUP2 ADD PUSH1 0x40 MSTORE DUP1 SWAP3 SWAP2 SWAP1 DUP2 DUP2 MSTORE PUSH1 0x20 ADD DUP3 DUP1 SLOAD PUSH2 0x2C5 SWAP1 PUSH2 0x1076 JUMP JUMPDEST DUP1 ISZERO PUSH2 0x312 JUMPI DUP1 PUSH1 0x1F LT PUSH2 0x2E7 JUMPI PUSH2 0x100 DUP1 DUP4 SLOAD DIV MUL DUP4 MSTORE SWAP2 PUSH1 0x20 ADD SWAP2 PUSH2 0x312 JUMP JUMPDEST DUP3 ADD SWAP2 SWAP1 PUSH1 0x0 MSTORE PUSH1 0x20 PUSH1 0x0 KECCAK256 SWAP1 JUMPDEST DUP2 SLOAD DUP2 MSTORE SWAP1 PUSH1 0x1 ADD SWAP1 PUSH1 0x20 ADD DUP1 DUP4 GT PUSH2 0x2F5 JUMPI DUP3 SWAP1 SUB PUSH1 0x1F AND DUP3 ADD SWAP2 JUMPDEST POP POP POP POP POP SWAP1 DUP1 PUSH1 0x2 ADD SLOAD SWAP1 DUP1 PUSH1 0x3 ADD SLOAD SWAP1 POP DUP5 JUMP JUMPDEST PUSH1 0x1 PUSH1 0x1 PUSH1 0xA0 SHL SUB DUP2 AND CALLER EQ PUSH2 0x39D JUMPI PUSH1 0x40 MLOAD PUSH3 0x461BCD PUSH1 0xE5 SHL DUP2 MSTORE PUSH1 0x20 PUSH1 0x4 DUP3 ADD MSTORE PUSH1 0x2F PUSH1 0x24 DUP3 ADD MSTORE PUSH32 0x416363657373436F6E74726F6C3A2063616E206F6E6C792072656E6F756E6365 PUSH1 0x44 DUP3 ADD MSTORE PUSH15 0x103937B632B9903337B91039B2B633 PUSH1 0x89 SHL PUSH1 0x64 DUP3 ADD MSTORE PUSH1 0x84 ADD JUMPDEST PUSH1 0x40 MLOAD DUP1 SWAP2 SUB SWAP1 REVERT JUMPDEST PUSH2 0x3A7 DUP3 DUP3 PUSH2 0x814 JUMP JUMPDEST POP POP JUMP JUMPDEST PUSH1 0x0 SWAP2 DUP3 MSTORE PUSH1 0x20 DUP3 DUP2 MSTORE PUSH1 0x40 DUP1 DUP5 KECCAK256 PUSH1 0x1 PUSH1 0x1 PUSH1 0xA0 SHL SUB SWAP4 SWAP1 SWAP4 AND DUP5 MSTORE SWAP2 SWAP1 MSTORE SWAP1 KECCAK256 SLOAD PUSH1 0xFF AND SWAP1 JUMP JUMPDEST PUSH32 0x78A8708A3A199518D3505C5AB9AE6D9C4738044CA9641D04E1C8B4D0E64941AF PUSH2 0x3FE DUP2 PUSH2 0x783 JUMP JUMPDEST PUSH1 0x28 DUP4 LT PUSH2 0x441 JUMPI PUSH1 0x40 MLOAD PUSH3 0x461BCD PUSH1 0xE5 SHL DUP2 MSTORE PUSH1 0x20 PUSH1 0x4 DUP3 ADD MSTORE PUSH1 0x10 PUSH1 0x24 DUP3 ADD MSTORE PUSH16 0x24B73B30B634B2103837B9B4BA34B7B7 PUSH1 0x81 SHL PUSH1 0x44 DUP3 ADD MSTORE PUSH1 0x64 ADD PUSH2 0x394 JUMP JUMPDEST PUSH1 0x0 PUSH1 0x1 DUP5 PUSH1 0x28 DUP2 LT PUSH2 0x456 JUMPI PUSH2 0x456 PUSH2 0x10B1 JUMP JUMPDEST PUSH1 0x40 DUP1 MLOAD PUSH1 0x80 DUP2 ADD SWAP1 SWAP2 MSTORE PUSH1 0x4 SWAP2 SWAP1 SWAP2 MUL SWAP2 SWAP1 SWAP2 ADD DUP1 SLOAD DUP3 SWAP1 PUSH1 0xFF AND PUSH1 0x5 DUP2 GT ISZERO PUSH2 0x483 JUMPI PUSH2 0x483 PUSH2 0xFA1 JUMP JUMPDEST PUSH1 0x5 DUP2 GT ISZERO PUSH2 0x494 JUMPI PUSH2 0x494 PUSH2 0xFA1 JUMP JUMPDEST DUP2 MSTORE PUSH1 0x20 ADD PUSH1 0x1 DUP3 ADD DUP1 SLOAD PUSH2 0x4A8 SWAP1 PUSH2 0x1076 JUMP JUMPDEST DUP1 PUSH1 0x1F ADD PUSH1 0x20 DUP1 SWAP2 DIV MUL PUSH1 0x20 ADD PUSH1 0x40 MLOAD SWAP1 DUP2 ADD PUSH1 0x40 MSTORE DUP1 SWAP3 SWAP2 SWAP1 DUP2 DUP2 MSTORE PUSH1 0x20 ADD DUP3 DUP1 SLOAD PUSH2 0x4D4 SWAP1 PUSH2 0x1076 JUMP JUMPDEST DUP1 ISZERO PUSH2 0x521 JUMPI DUP1 PUSH1 0x1F LT PUSH2 0x4F6 JUMPI PUSH2 0x100 DUP1 DUP4 SLOAD DIV MUL DUP4 MSTORE SWAP2 PUSH1 0x20 ADD SWAP2 PUSH2 0x521 JUMP JUMPDEST DUP3 ADD SWAP2 SWAP1 PUSH1 0x0 MSTORE PUSH1 0x20 PUSH1 0x0 KECCAK256 SWAP1 JUMPDEST DUP2 SLOAD DUP2 MSTORE SWAP1 PUSH1 0x1 ADD SWAP1 PUSH1 0x20 ADD DUP1 DUP4 GT PUSH2 0x504 JUMPI DUP3 SWAP1 SUB PUSH1 0x1F AND DUP3 ADD SWAP2 JUMPDEST POP POP POP SWAP2 DUP4 MSTORE POP POP PUSH1 0x2 DUP3 ADD SLOAD PUSH1 0x20 DUP3 ADD MSTORE PUSH1 0x3 SWAP1 SWAP2 ADD SLOAD PUSH1 0x40 SWAP1 SWAP2 ADD MSTORE SWAP1 POP PUSH1 0x1 DUP2 MLOAD PUSH1 0x5 DUP2 GT ISZERO PUSH2 0x556 JUMPI PUSH2 0x556 PUSH2 0xFA1 JUMP JUMPDEST EQ ISZERO PUSH2 0x56F JUMPI PUSH2 0x56A DUP2 PUSH1 0x60 ADD MLOAD DUP5 PUSH2 0x879 JUMP JUMPDEST PUSH2 0x5B7 JUMP JUMPDEST PUSH1 0x2 DUP2 MLOAD PUSH1 0x5 DUP2 GT ISZERO PUSH2 0x584 JUMPI PUSH2 0x584 PUSH2 0xFA1 JUMP JUMPDEST EQ ISZERO PUSH2 0x593 JUMPI PUSH2 0x56A DUP4 PUSH2 0xACB JUMP JUMPDEST PUSH1 0x3 DUP2 MLOAD PUSH1 0x5 DUP2 GT ISZERO PUSH2 0x5A8 JUMPI PUSH2 0x5A8 PUSH2 0xFA1 JUMP JUMPDEST EQ ISZERO PUSH2 0x5B7 JUMPI PUSH2 0x5B7 DUP4 PUSH2 0xB3D JUMP JUMPDEST POP POP POP POP JUMP JUMPDEST PUSH1 0x0 DUP3 DUP2 MSTORE PUSH1 0x20 DUP2 SWAP1 MSTORE PUSH1 0x40 SWAP1 KECCAK256 PUSH1 0x1 ADD SLOAD PUSH2 0x5D8 DUP2 PUSH2 0x783 JUMP JUMPDEST PUSH2 0x267 DUP4 DUP4 PUSH2 0x814 JUMP JUMPDEST PUSH1 0x0 PUSH2 0x5ED DUP2 PUSH2 0x783 JUMP JUMPDEST PUSH1 0x1 PUSH1 0x1 PUSH1 0xA0 SHL SUB DUP3 AND PUSH2 0x63A JUMPI PUSH1 0x40 MLOAD PUSH3 0x461BCD PUSH1 0xE5 SHL DUP2 MSTORE PUSH1 0x20 PUSH1 0x4 DUP3 ADD MSTORE PUSH1 0x14 PUSH1 0x24 DUP3 ADD MSTORE PUSH20 0x496E76616C69642067616D652061646472657373 PUSH1 0x60 SHL PUSH1 0x44 DUP3 ADD MSTORE PUSH1 0x64 ADD PUSH2 0x394 JUMP JUMPDEST PUSH2 0x664 PUSH32 0x78A8708A3A199518D3505C5AB9AE6D9C4738044CA9641D04E1C8B4D0E64941AF DUP4 PUSH2 0x790 JUMP JUMPDEST PUSH1 0xA2 SLOAD PUSH1 0x40 DUP1 MLOAD PUSH4 0x55A00383 PUSH1 0xE1 SHL DUP2 MSTORE SWAP1 MLOAD PUSH1 0x0 SWAP3 PUSH1 0x1 PUSH1 0x1 PUSH1 0xA0 SHL SUB AND SWAP2 PUSH4 0xAB400706 SWAP2 PUSH1 0x4 DUP1 DUP4 ADD SWAP3 PUSH1 0x20 SWAP3 SWAP2 SWAP1 DUP3 SWAP1 SUB ADD DUP2 DUP7 DUP1 EXTCODESIZE ISZERO DUP1 ISZERO PUSH2 0x6A9 JUMPI PUSH1 0x0 DUP1 REVERT JUMPDEST POP GAS STATICCALL ISZERO DUP1 ISZERO PUSH2 0x6BD JUMPI RETURNDATASIZE PUSH1 0x0 DUP1 RETURNDATACOPY RETURNDATASIZE PUSH1 0x0 REVERT JUMPDEST POP POP POP POP PUSH1 0x40 MLOAD RETURNDATASIZE PUSH1 0x1F NOT PUSH1 0x1F DUP3 ADD AND DUP3 ADD DUP1 PUSH1 0x40 MSTORE POP DUP2 ADD SWAP1 PUSH2 0x6E1 SWAP2 SWAP1 PUSH2 0x10C7 JUMP JUMPDEST PUSH1 0xA2 SLOAD PUSH1 0x40 MLOAD PUSH4 0x2F2FF15D PUSH1 0xE0 SHL DUP2 MSTORE PUSH1 0x4 DUP2 ADD DUP4 SWAP1 MSTORE PUSH1 0x1 PUSH1 0x1 PUSH1 0xA0 SHL SUB DUP7 DUP2 AND PUSH1 0x24 DUP4 ADD MSTORE SWAP3 SWAP4 POP SWAP2 AND SWAP1 PUSH4 0x2F2FF15D SWAP1 PUSH1 0x44 ADD PUSH1 0x0 PUSH1 0x40 MLOAD DUP1 DUP4 SUB DUP2 PUSH1 0x0 DUP8 DUP1 EXTCODESIZE ISZERO DUP1 ISZERO PUSH2 0x731 JUMPI PUSH1 0x0 DUP1 REVERT JUMPDEST POP GAS CALL ISZERO DUP1 ISZERO PUSH2 0x745 JUMPI RETURNDATASIZE PUSH1 0x0 DUP1 RETURNDATACOPY RETURNDATASIZE PUSH1 0x0 REVERT JUMPDEST POP POP POP POP POP POP POP JUMP JUMPDEST PUSH1 0x0 PUSH1 0x1 PUSH1 0x1 PUSH1 0xE0 SHL SUB NOT DUP3 AND PUSH4 0x7965DB0B PUSH1 0xE0 SHL EQ DUP1 PUSH2 0x23C JUMPI POP PUSH4 0x1FFC9A7 PUSH1 0xE0 SHL PUSH1 0x1 PUSH1 0x1 PUSH1 0xE0 SHL SUB NOT DUP4 AND EQ PUSH2 0x23C JUMP JUMPDEST PUSH2 0x78D DUP2 CALLER PUSH2 0xB7E JUMP JUMPDEST POP JUMP JUMPDEST PUSH2 0x79A DUP3 DUP3 PUSH2 0x3AB JUMP JUMPDEST PUSH2 0x3A7 JUMPI PUSH1 0x0 DUP3 DUP2 MSTORE PUSH1 0x20 DUP2 DUP2 MSTORE PUSH1 0x40 DUP1 DUP4 KECCAK256 PUSH1 0x1 PUSH1 0x1 PUSH1 0xA0 SHL SUB DUP6 AND DUP5 MSTORE SWAP1 SWAP2 MSTORE SWAP1 KECCAK256 DUP1 SLOAD PUSH1 0xFF NOT AND PUSH1 0x1 OR SWAP1 SSTORE PUSH2 0x7D0 CALLER SWAP1 JUMP JUMPDEST PUSH1 0x1 PUSH1 0x1 PUSH1 0xA0 SHL SUB AND DUP2 PUSH1 0x1 PUSH1 0x1 PUSH1 0xA0 SHL SUB AND DUP4 PUSH32 0x2F8788117E7EFF1D82E926EC794901D17C78024A50270940304540A733656F0D PUSH1 0x40 MLOAD PUSH1 0x40 MLOAD DUP1 SWAP2 SUB SWAP1 LOG4 POP POP JUMP JUMPDEST PUSH2 0x81E DUP3 DUP3 PUSH2 0x3AB JUMP JUMPDEST ISZERO PUSH2 0x3A7 JUMPI PUSH1 0x0 DUP3 DUP2 MSTORE PUSH1 0x20 DUP2 DUP2 MSTORE PUSH1 0x40 DUP1 DUP4 KECCAK256 PUSH1 0x1 PUSH1 0x1 PUSH1 0xA0 SHL SUB DUP6 AND DUP1 DUP6 MSTORE SWAP3 MSTORE DUP1 DUP4 KECCAK256 DUP1 SLOAD PUSH1 0xFF NOT AND SWAP1 SSTORE MLOAD CALLER SWAP3 DUP6 SWAP2 PUSH32 0xF6391F5C32D9C69D2A47EA670B442974B53935D1EDC7FD64EB21E047A839171B SWAP2 SWAP1 LOG4 POP POP JUMP JUMPDEST PUSH1 0xA1 SLOAD PUSH1 0x40 MLOAD PUSH4 0x31A9108F PUSH1 0xE1 SHL DUP2 MSTORE PUSH1 0x4 DUP2 ADD DUP5 SWAP1 MSTORE PUSH1 0x0 SWAP2 PUSH1 0x1 PUSH1 0x1 PUSH1 0xA0 SHL SUB AND SWAP1 PUSH4 0x6352211E SWAP1 PUSH1 0x24 ADD PUSH1 0x20 PUSH1 0x40 MLOAD DUP1 DUP4 SUB DUP2 DUP7 DUP1 EXTCODESIZE ISZERO DUP1 ISZERO PUSH2 0x8BE JUMPI PUSH1 0x0 DUP1 REVERT JUMPDEST POP GAS STATICCALL ISZERO DUP1 ISZERO PUSH2 0x8D2 JUMPI RETURNDATASIZE PUSH1 0x0 DUP1 RETURNDATACOPY RETURNDATASIZE PUSH1 0x0 REVERT JUMPDEST POP POP POP POP PUSH1 0x40 MLOAD RETURNDATASIZE PUSH1 0x1F NOT PUSH1 0x1F DUP3 ADD AND DUP3 ADD DUP1 PUSH1 0x40 MSTORE POP DUP2 ADD SWAP1 PUSH2 0x8F6 SWAP2 SWAP1 PUSH2 0x10E0 JUMP JUMPDEST SWAP1 POP PUSH1 0x1 PUSH1 0x1 PUSH1 0xA0 SHL SUB DUP2 AND PUSH2 0xAC0 JUMPI PUSH1 0xA1 SLOAD PUSH1 0x40 MLOAD PUSH4 0x1E25D4B PUSH1 0xE2 SHL DUP2 MSTORE PUSH1 0x4 DUP2 ADD DUP6 SWAP1 MSTORE PUSH1 0x0 SWAP2 PUSH1 0x1 PUSH1 0x1 PUSH1 0xA0 SHL SUB AND SWAP1 PUSH4 0x789752C SWAP1 PUSH1 0x24 ADD PUSH1 0x20 PUSH1 0x40 MLOAD DUP1 DUP4 SUB DUP2 DUP7 DUP1 EXTCODESIZE ISZERO DUP1 ISZERO PUSH2 0x94B JUMPI PUSH1 0x0 DUP1 REVERT JUMPDEST POP GAS STATICCALL ISZERO DUP1 ISZERO PUSH2 0x95F JUMPI RETURNDATASIZE PUSH1 0x0 DUP1 RETURNDATACOPY RETURNDATASIZE PUSH1 0x0 REVERT JUMPDEST POP POP POP POP PUSH1 0x40 MLOAD RETURNDATASIZE PUSH1 0x1F NOT PUSH1 0x1F DUP3 ADD AND DUP3 ADD DUP1 PUSH1 0x40 MSTORE POP DUP2 ADD SWAP1 PUSH2 0x983 SWAP2 SWAP1 PUSH2 0x10C7 JUMP JUMPDEST PUSH1 0xA2 SLOAD PUSH1 0x40 MLOAD PUSH4 0xD1660F99 PUSH1 0xE0 SHL DUP2 MSTORE PUSH1 0x1 PUSH1 0x1 PUSH1 0xA0 SHL SUB DUP7 DUP2 AND PUSH1 0x4 DUP4 ADD MSTORE ADDRESS PUSH1 0x24 DUP4 ADD MSTORE PUSH1 0x44 DUP3 ADD DUP5 SWAP1 MSTORE SWAP3 SWAP4 POP SWAP2 AND SWAP1 PUSH4 0xD1660F99 SWAP1 PUSH1 0x64 ADD PUSH1 0x20 PUSH1 0x40 MLOAD DUP1 DUP4 SUB DUP2 PUSH1 0x0 DUP8 DUP1 EXTCODESIZE ISZERO DUP1 ISZERO PUSH2 0x9D9 JUMPI PUSH1 0x0 DUP1 REVERT JUMPDEST POP GAS CALL ISZERO DUP1 ISZERO PUSH2 0x9ED JUMPI RETURNDATASIZE PUSH1 0x0 DUP1 RETURNDATACOPY RETURNDATASIZE PUSH1 0x0 REVERT JUMPDEST POP POP POP POP PUSH1 0x40 MLOAD RETURNDATASIZE PUSH1 0x1F NOT PUSH1 0x1F DUP3 ADD AND DUP3 ADD DUP1 PUSH1 0x40 MSTORE POP DUP2 ADD SWAP1 PUSH2 0xA11 SWAP2 SWAP1 PUSH2 0x10FD JUMP JUMPDEST PUSH2 0xA4E JUMPI PUSH1 0x40 MLOAD PUSH3 0x461BCD PUSH1 0xE5 SHL DUP2 MSTORE PUSH1 0x20 PUSH1 0x4 DUP3 ADD MSTORE PUSH1 0xE PUSH1 0x24 DUP3 ADD MSTORE PUSH14 0x14185E5B595B9D0819985A5B1959 PUSH1 0x92 SHL PUSH1 0x44 DUP3 ADD MSTORE PUSH1 0x64 ADD PUSH2 0x394 JUMP JUMPDEST PUSH1 0xA1 SLOAD PUSH1 0x40 MLOAD PUSH4 0x21421707 PUSH1 0xE1 SHL DUP2 MSTORE ADDRESS PUSH1 0x4 DUP3 ADD MSTORE PUSH1 0x1 PUSH1 0x1 PUSH1 0xA0 SHL SUB DUP6 DUP2 AND PUSH1 0x24 DUP4 ADD MSTORE PUSH1 0x44 DUP3 ADD DUP8 SWAP1 MSTORE SWAP1 SWAP2 AND SWAP1 PUSH4 0x42842E0E SWAP1 PUSH1 0x64 ADD PUSH1 0x0 PUSH1 0x40 MLOAD DUP1 DUP4 SUB DUP2 PUSH1 0x0 DUP8 DUP1 EXTCODESIZE ISZERO DUP1 ISZERO PUSH2 0xAA2 JUMPI PUSH1 0x0 DUP1 REVERT JUMPDEST POP GAS CALL ISZERO DUP1 ISZERO PUSH2 0xAB6 JUMPI RETURNDATASIZE PUSH1 0x0 DUP1 RETURNDATACOPY RETURNDATASIZE PUSH1 0x0 REVERT JUMPDEST POP POP POP POP POP POP POP POP JUMP JUMPDEST PUSH2 0x267 DUP4 DUP4 DUP4 PUSH2 0xBD7 JUMP JUMPDEST PUSH1 0xA2 SLOAD PUSH1 0x40 MLOAD PUSH4 0x4EB90299 PUSH1 0xE0 SHL DUP2 MSTORE PUSH1 0x1 PUSH1 0x1 PUSH1 0xA0 SHL SUB DUP4 DUP2 AND PUSH1 0x4 DUP4 ADD MSTORE PUSH9 0x56BC75E2D63100000 PUSH1 0x24 DUP4 ADD MSTORE SWAP1 SWAP2 AND SWAP1 PUSH4 0x4EB90299 SWAP1 PUSH1 0x44 ADD JUMPDEST PUSH1 0x0 PUSH1 0x40 MLOAD DUP1 DUP4 SUB DUP2 PUSH1 0x0 DUP8 DUP1 EXTCODESIZE ISZERO DUP1 ISZERO PUSH2 0xB22 JUMPI PUSH1 0x0 DUP1 REVERT JUMPDEST POP GAS CALL ISZERO DUP1 ISZERO PUSH2 0xB36 JUMPI RETURNDATASIZE PUSH1 0x0 DUP1 RETURNDATACOPY RETURNDATASIZE PUSH1 0x0 REVERT JUMPDEST POP POP POP POP POP JUMP JUMPDEST PUSH1 0xA2 SLOAD PUSH1 0x40 MLOAD PUSH4 0x4EB90299 PUSH1 0xE0 SHL DUP2 MSTORE PUSH1 0x1 PUSH1 0x1 PUSH1 0xA0 SHL SUB DUP4 DUP2 AND PUSH1 0x4 DUP4 ADD MSTORE PUSH9 0x2B5E3AF16B1880000 PUSH1 0x24 DUP4 ADD MSTORE SWAP1 SWAP2 AND SWAP1 PUSH4 0x4EB90299 SWAP1 PUSH1 0x44 ADD PUSH2 0xB08 JUMP JUMPDEST PUSH2 0xB88 DUP3 DUP3 PUSH2 0x3AB JUMP JUMPDEST PUSH2 0x3A7 JUMPI PUSH2 0xB95 DUP2 PUSH2 0xD64 JUMP JUMPDEST PUSH2 0xBA0 DUP4 PUSH1 0x20 PUSH2 0xD76 JUMP JUMPDEST PUSH1 0x40 MLOAD PUSH1 0x20 ADD PUSH2 0xBB1 SWAP3 SWAP2 SWAP1 PUSH2 0x111F JUMP JUMPDEST PUSH1 0x40 DUP1 MLOAD PUSH1 0x1F NOT DUP2 DUP5 SUB ADD DUP2 MSTORE SWAP1 DUP3 SWAP1 MSTORE PUSH3 0x461BCD PUSH1 0xE5 SHL DUP3 MSTORE PUSH2 0x394 SWAP2 PUSH1 0x4 ADD PUSH2 0x1194 JUMP JUMPDEST PUSH1 0xA1 SLOAD PUSH1 0x40 MLOAD PUSH4 0xA52873EF PUSH1 0xE0 SHL DUP2 MSTORE PUSH1 0x4 DUP2 ADD DUP6 SWAP1 MSTORE PUSH1 0x0 SWAP2 PUSH1 0x1 PUSH1 0x1 PUSH1 0xA0 SHL SUB AND SWAP1 PUSH4 0xA52873EF SWAP1 PUSH1 0x24 ADD PUSH1 0x20 PUSH1 0x40 MLOAD DUP1 DUP4 SUB DUP2 DUP7 DUP1 EXTCODESIZE ISZERO DUP1 ISZERO PUSH2 0xC1C JUMPI PUSH1 0x0 DUP1 REVERT JUMPDEST POP GAS STATICCALL ISZERO DUP1 ISZERO PUSH2 0xC30 JUMPI RETURNDATASIZE PUSH1 0x0 DUP1 RETURNDATACOPY RETURNDATASIZE PUSH1 0x0 REVERT JUMPDEST POP POP POP POP PUSH1 0x40 MLOAD RETURNDATASIZE PUSH1 0x1F NOT PUSH1 0x1F DUP3 ADD AND DUP3 ADD DUP1 PUSH1 0x40 MSTORE POP DUP2 ADD SWAP1 PUSH2 0xC54 SWAP2 SWAP1 PUSH2 0x10C7 JUMP JUMPDEST SWAP1 POP PUSH1 0x0 DUP2 GT PUSH2 0xC9C JUMPI PUSH1 0x40 MLOAD PUSH3 0x461BCD PUSH1 0xE5 SHL DUP2 MSTORE PUSH1 0x20 PUSH1 0x4 DUP3 ADD MSTORE PUSH1 0x13 PUSH1 0x24 DUP3 ADD MSTORE PUSH19 0x125B9D985B1A59081C995B9D08185B5BDD5B9D PUSH1 0x6A SHL PUSH1 0x44 DUP3 ADD MSTORE PUSH1 0x64 ADD PUSH2 0x394 JUMP JUMPDEST PUSH1 0xA2 SLOAD PUSH1 0x40 MLOAD PUSH4 0xD1660F99 PUSH1 0xE0 SHL DUP2 MSTORE PUSH1 0x1 PUSH1 0x1 PUSH1 0xA0 SHL SUB DUP6 DUP2 AND PUSH1 0x4 DUP4 ADD MSTORE DUP5 DUP2 AND PUSH1 0x24 DUP4 ADD MSTORE PUSH1 0x44 DUP3 ADD DUP5 SWAP1 MSTORE SWAP1 SWAP2 AND SWAP1 PUSH4 0xD1660F99 SWAP1 PUSH1 0x64 ADD PUSH1 0x20 PUSH1 0x40 MLOAD DUP1 DUP4 SUB DUP2 PUSH1 0x0 DUP8 DUP1 EXTCODESIZE ISZERO DUP1 ISZERO PUSH2 0xCF2 JUMPI PUSH1 0x0 DUP1 REVERT JUMPDEST POP GAS CALL ISZERO DUP1 ISZERO PUSH2 0xD06 JUMPI RETURNDATASIZE PUSH1 0x0 DUP1 RETURNDATACOPY RETURNDATASIZE PUSH1 0x0 REVERT JUMPDEST POP POP POP POP PUSH1 0x40 MLOAD RETURNDATASIZE PUSH1 0x1F NOT PUSH1 0x1F DUP3 ADD AND DUP3 ADD DUP1 PUSH1 0x40 MSTORE POP DUP2 ADD SWAP1 PUSH2 0xD2A SWAP2 SWAP1 PUSH2 0x10FD JUMP JUMPDEST PUSH2 0x5B7 JUMPI PUSH1 0x40 MLOAD PUSH3 0x461BCD PUSH1 0xE5 SHL DUP2 MSTORE PUSH1 0x20 PUSH1 0x4 DUP3 ADD MSTORE PUSH1 0xB PUSH1 0x24 DUP3 ADD MSTORE PUSH11 0x14995B9D0819985A5B1959 PUSH1 0xAA SHL PUSH1 0x44 DUP3 ADD MSTORE PUSH1 0x64 ADD PUSH2 0x394 JUMP JUMPDEST PUSH1 0x60 PUSH2 0x23C PUSH1 0x1 PUSH1 0x1 PUSH1 0xA0 SHL SUB DUP4 AND PUSH1 0x14 JUMPDEST PUSH1 0x60 PUSH1 0x0 PUSH2 0xD85 DUP4 PUSH1 0x2 PUSH2 0x11BD JUMP JUMPDEST PUSH2 0xD90 SWAP1 PUSH1 0x2 PUSH2 0x11DC JUMP JUMPDEST PUSH8 0xFFFFFFFFFFFFFFFF DUP2 GT ISZERO PUSH2 0xDA8 JUMPI PUSH2 0xDA8 PUSH2 0x11F4 JUMP JUMPDEST PUSH1 0x40 MLOAD SWAP1 DUP1 DUP3 MSTORE DUP1 PUSH1 0x1F ADD PUSH1 0x1F NOT AND PUSH1 0x20 ADD DUP3 ADD PUSH1 0x40 MSTORE DUP1 ISZERO PUSH2 0xDD2 JUMPI PUSH1 0x20 DUP3 ADD DUP2 DUP1 CALLDATASIZE DUP4 CALLDATACOPY ADD SWAP1 POP JUMPDEST POP SWAP1 POP PUSH1 0x3 PUSH1 0xFC SHL DUP2 PUSH1 0x0 DUP2 MLOAD DUP2 LT PUSH2 0xDED JUMPI PUSH2 0xDED PUSH2 0x10B1 JUMP JUMPDEST PUSH1 0x20 ADD ADD SWAP1 PUSH1 0x1 PUSH1 0x1 PUSH1 0xF8 SHL SUB NOT AND SWAP1 DUP2 PUSH1 0x0 BYTE SWAP1 MSTORE8 POP PUSH1 0xF PUSH1 0xFB SHL DUP2 PUSH1 0x1 DUP2 MLOAD DUP2 LT PUSH2 0xE1C JUMPI PUSH2 0xE1C PUSH2 0x10B1 JUMP JUMPDEST PUSH1 0x20 ADD ADD SWAP1 PUSH1 0x1 PUSH1 0x1 PUSH1 0xF8 SHL SUB NOT AND SWAP1 DUP2 PUSH1 0x0 BYTE SWAP1 MSTORE8 POP PUSH1 0x0 PUSH2 0xE40 DUP5 PUSH1 0x2 PUSH2 0x11BD JUMP JUMPDEST PUSH2 0xE4B SWAP1 PUSH1 0x1 PUSH2 0x11DC JUMP JUMPDEST SWAP1 POP JUMPDEST PUSH1 0x1 DUP2 GT ISZERO PUSH2 0xEC3 JUMPI PUSH16 0x181899199A1A9B1B9C1CB0B131B232B3 PUSH1 0x81 SHL DUP6 PUSH1 0xF AND PUSH1 0x10 DUP2 LT PUSH2 0xE7F JUMPI PUSH2 0xE7F PUSH2 0x10B1 JUMP JUMPDEST BYTE PUSH1 0xF8 SHL DUP3 DUP3 DUP2 MLOAD DUP2 LT PUSH2 0xE95 JUMPI PUSH2 0xE95 PUSH2 0x10B1 JUMP JUMPDEST PUSH1 0x20 ADD ADD SWAP1 PUSH1 0x1 PUSH1 0x1 PUSH1 0xF8 SHL SUB NOT AND SWAP1 DUP2 PUSH1 0x0 BYTE SWAP1 MSTORE8 POP PUSH1 0x4 SWAP5 SWAP1 SWAP5 SHR SWAP4 PUSH2 0xEBC DUP2 PUSH2 0x120A JUMP JUMPDEST SWAP1 POP PUSH2 0xE4E JUMP JUMPDEST POP DUP4 ISZERO PUSH2 0xF12 JUMPI PUSH1 0x40 MLOAD PUSH3 0x461BCD PUSH1 0xE5 SHL DUP2 MSTORE PUSH1 0x20 PUSH1 0x4 DUP3 ADD DUP2 SWAP1 MSTORE PUSH1 0x24 DUP3 ADD MSTORE PUSH32 0x537472696E67733A20686578206C656E67746820696E73756666696369656E74 PUSH1 0x44 DUP3 ADD MSTORE PUSH1 0x64 ADD PUSH2 0x394 JUMP JUMPDEST SWAP4 SWAP3 POP POP POP JUMP JUMPDEST PUSH1 0x0 PUSH1 0x20 DUP3 DUP5 SUB SLT ISZERO PUSH2 0xF2B JUMPI PUSH1 0x0 DUP1 REVERT JUMPDEST DUP2 CALLDATALOAD PUSH1 0x1 PUSH1 0x1 PUSH1 0xE0 SHL SUB NOT DUP2 AND DUP2 EQ PUSH2 0xF12 JUMPI PUSH1 0x0 DUP1 REVERT JUMPDEST PUSH1 0x0 PUSH1 0x20 DUP3 DUP5 SUB SLT ISZERO PUSH2 0xF55 JUMPI PUSH1 0x0 DUP1 REVERT JUMPDEST POP CALLDATALOAD SWAP2 SWAP1 POP JUMP JUMPDEST PUSH1 0x1 PUSH1 0x1 PUSH1 0xA0 SHL SUB DUP2 AND DUP2 EQ PUSH2 0x78D JUMPI PUSH1 0x0 DUP1 REVERT JUMPDEST PUSH1 0x0 DUP1 PUSH1 0x40 DUP4 DUP6 SUB SLT ISZERO PUSH2 0xF84 JUMPI PUSH1 0x0 DUP1 REVERT JUMPDEST DUP3 CALLDATALOAD SWAP2 POP PUSH1 0x20 DUP4 ADD CALLDATALOAD PUSH2 0xF96 DUP2 PUSH2 0xF5C JUMP JUMPDEST DUP1 SWAP2 POP POP SWAP3 POP SWAP3 SWAP1 POP JUMP JUMPDEST PUSH4 0x4E487B71 PUSH1 0xE0 SHL PUSH1 0x0 MSTORE PUSH1 0x21 PUSH1 0x4 MSTORE PUSH1 0x24 PUSH1 0x0 REVERT JUMPDEST PUSH1 0x0 JUMPDEST DUP4 DUP2 LT ISZERO PUSH2 0xFD2 JUMPI DUP2 DUP2 ADD MLOAD DUP4 DUP3 ADD MSTORE PUSH1 0x20 ADD PUSH2 0xFBA JUMP JUMPDEST DUP4 DUP2 GT ISZERO PUSH2 0x5B7 JUMPI POP POP PUSH1 0x0 SWAP2 ADD MSTORE JUMP JUMPDEST PUSH1 0x0 DUP2 MLOAD DUP1 DUP5 MSTORE PUSH2 0xFFB DUP2 PUSH1 0x20 DUP7 ADD PUSH1 0x20 DUP7 ADD PUSH2 0xFB7 JUMP JUMPDEST PUSH1 0x1F ADD PUSH1 0x1F NOT AND SWAP3 SWAP1 SWAP3 ADD PUSH1 0x20 ADD SWAP3 SWAP2 POP POP JUMP JUMPDEST PUSH1 0x0 PUSH1 0x6 DUP7 LT PUSH2 0x102F JUMPI PUSH4 0x4E487B71 PUSH1 0xE0 SHL PUSH1 0x0 MSTORE PUSH1 0x21 PUSH1 0x4 MSTORE PUSH1 0x24 PUSH1 0x0 REVERT JUMPDEST DUP6 DUP3 MSTORE PUSH1 0x80 PUSH1 0x20 DUP4 ADD MSTORE PUSH2 0x1046 PUSH1 0x80 DUP4 ADD DUP7 PUSH2 0xFE3 JUMP JUMPDEST PUSH1 0x40 DUP4 ADD SWAP5 SWAP1 SWAP5 MSTORE POP PUSH1 0x60 ADD MSTORE SWAP3 SWAP2 POP POP JUMP JUMPDEST PUSH1 0x0 PUSH1 0x20 DUP3 DUP5 SUB SLT ISZERO PUSH2 0x106B JUMPI PUSH1 0x0 DUP1 REVERT JUMPDEST DUP2 CALLDATALOAD PUSH2 0xF12 DUP2 PUSH2 0xF5C JUMP JUMPDEST PUSH1 0x1 DUP2 DUP2 SHR SWAP1 DUP3 AND DUP1 PUSH2 0x108A JUMPI PUSH1 0x7F DUP3 AND SWAP2 POP JUMPDEST PUSH1 0x20 DUP3 LT DUP2 EQ ISZERO PUSH2 0x10AB JUMPI PUSH4 0x4E487B71 PUSH1 0xE0 SHL PUSH1 0x0 MSTORE PUSH1 0x22 PUSH1 0x4 MSTORE PUSH1 0x24 PUSH1 0x0 REVERT JUMPDEST POP SWAP2 SWAP1 POP JUMP JUMPDEST PUSH4 0x4E487B71 PUSH1 0xE0 SHL PUSH1 0x0 MSTORE PUSH1 0x32 PUSH1 0x4 MSTORE PUSH1 0x24 PUSH1 0x0 REVERT JUMPDEST PUSH1 0x0 PUSH1 0x20 DUP3 DUP5 SUB SLT ISZERO PUSH2 0x10D9 JUMPI PUSH1 0x0 DUP1 REVERT JUMPDEST POP MLOAD SWAP2 SWAP1 POP JUMP JUMPDEST PUSH1 0x0 PUSH1 0x20 DUP3 DUP5 SUB SLT ISZERO PUSH2 0x10F2 JUMPI PUSH1 0x0 DUP1 REVERT JUMPDEST DUP2 MLOAD PUSH2 0xF12 DUP2 PUSH2 0xF5C JUMP JUMPDEST PUSH1 0x0 PUSH1 0x20 DUP3 DUP5 SUB SLT ISZERO PUSH2 0x110F JUMPI PUSH1 0x0 DUP1 REVERT JUMPDEST DUP2 MLOAD DUP1 ISZERO ISZERO DUP2 EQ PUSH2 0xF12 JUMPI PUSH1 0x0 DUP1 REVERT JUMPDEST PUSH32 0x416363657373436F6E74726F6C3A206163636F756E7420000000000000000000 DUP2 MSTORE PUSH1 0x0 DUP4 MLOAD PUSH2 0x1157 DUP2 PUSH1 0x17 DUP6 ADD PUSH1 0x20 DUP9 ADD PUSH2 0xFB7 JUMP JUMPDEST PUSH17 0x1034B99036B4B9B9B4B733903937B6329 PUSH1 0x7D SHL PUSH1 0x17 SWAP2 DUP5 ADD SWAP2 DUP3 ADD MSTORE DUP4 MLOAD PUSH2 0x1188 DUP2 PUSH1 0x28 DUP5 ADD PUSH1 0x20 DUP9 ADD PUSH2 0xFB7 JUMP JUMPDEST ADD PUSH1 0x28 ADD SWAP5 SWAP4 POP POP POP POP JUMP JUMPDEST PUSH1 0x20 DUP2 MSTORE PUSH1 0x0 PUSH2 0xF12 PUSH1 0x20 DUP4 ADD DUP5 PUSH2 0xFE3 JUMP JUMPDEST PUSH4 0x4E487B71 PUSH1 0xE0 SHL PUSH1 0x0 MSTORE PUSH1 0x11 PUSH1 0x4 MSTORE PUSH1 0x24 PUSH1 0x0 REVERT JUMPDEST PUSH1 0x0 DUP2 PUSH1 0x0 NOT DIV DUP4 GT DUP3 ISZERO ISZERO AND ISZERO PUSH2 0x11D7 JUMPI PUSH2 0x11D7 PUSH2 0x11A7 JUMP JUMPDEST POP MUL SWAP1 JUMP JUMPDEST PUSH1 0x0 DUP3 NOT DUP3 GT ISZERO PUSH2 0x11EF JUMPI PUSH2 0x11EF PUSH2 0x11A7 JUMP JUMPDEST POP ADD SWAP1 JUMP JUMPDEST PUSH4 0x4E487B71 PUSH1 0xE0 SHL PUSH1 0x0 MSTORE PUSH1 0x41 PUSH1 0x4 MSTORE PUSH1 0x24 PUSH1 0x0 REVERT JUMPDEST PUSH1 0x0 DUP2 PUSH2 0x1219 JUMPI PUSH2 0x1219 PUSH2 0x11A7 JUMP JUMPDEST POP PUSH1 0x0 NOT ADD SWAP1 JUMP INVALID LOG2 PUSH5 0x6970667358 0x22 SLT KECCAK256 PUSH6 0x86F56507B7C0 EXTCODEHASH 0xC6 DIFFICULTY 0x2F 0xFB EXP 0xE6 0xAE JUMPDEST 0xF8 KECCAK256 0xE6 0xB2 0xB9 MOD 0xED SWAP15 0x2A PUSH19 0xD854CE8F1DDC64736F6C634300080900330000 "},"methodIdentifiers":{"DEFAULT_ADMIN_ROLE()":"a217fddf","GAME_CONTRACT()":"77e1e4d7","getRoleAdmin(bytes32)":"248a9ca3","grantGameRole(address)":"f1d19e07","grantRole(bytes32,address)":"2f2ff15d","handleLandingEffect(uint256,address)":"96ce55bc","hasRole(bytes32,address)":"91d14854","propertyContract()":"8fca9673","renounceRole(bytes32,address)":"36568abe","revokeRole(bytes32,address)":"d547741f","supportsInterface(bytes4)":"01ffc9a7","tiles(uint256)":"2fd2e742","tokenContract()":"55a373d6"}}}}}