{
  "_format": "hh-sol-artifact-1",
  "contractName": "MonopolyGame",
  "sourceName": "contracts/MonopolyGame.sol",
  "abi": [
    {
      "inputs": [
        {
          "internalType": "address",
          "name": "_tokenAddress",
          "type": "address"
        },
        {
          "internalType": "address",
          "name": "_propertyAddress",
          "type": "address"
        },
        {
          "internalType": "address",
          "name": "_boardAddress",
          "type": "address"
        }
      ],
      "stateMutability": "nonpayable",
      "type": "constructor"
    },
    {
      "anonymous": false,
      "inputs": [],
      "name": "GameStarted",
      "type": "event"
    },
    {
      "anonymous": false,
      "inputs": [
        {
          "indexed": true,
          "internalType": "address",
          "name": "player",
          "type": "address"
        }
      ],
      "name": "PlayerBankrupt",
      "type": "event"
    },
    {
      "anonymous": false,
      "inputs": [
        {
          "indexed": false,
          "internalType": "address",
          "name": "player",
          "type": "address"
        },
        {
          "indexed": false,
          "internalType": "uint256",
          "name": "newPosition",
          "type": "uint256"
        }
      ],
      "name": "PlayerMoved",
      "type": "event"
    },
    {
      "anonymous": false,
      "inputs": [
        {
          "indexed": false,
          "internalType": "address",
          "name": "player",
          "type": "address"
        },
        {
          "indexed": false,
          "internalType": "uint256",
          "name": "propertyId",
          "type": "uint256"
        }
      ],
      "name": "PropertyPurchased",
      "type": "event"
    },
    {
      "anonymous": false,
      "inputs": [
        {
          "indexed": true,
          "internalType": "uint256",
          "name": "propertyId",
          "type": "uint256"
        },
        {
          "indexed": false,
          "internalType": "uint256",
          "name": "newLevel",
          "type": "uint256"
        }
      ],
      "name": "PropertyUpgraded",
      "type": "event"
    },
    {
      "anonymous": false,
      "inputs": [
        {
          "indexed": false,
          "internalType": "address",
          "name": "from",
          "type": "address"
        },
        {
          "indexed": false,
          "internalType": "address",
          "name": "to",
          "type": "address"
        },
        {
          "indexed": false,
          "internalType": "uint256",
          "name": "propertyId",
          "type": "uint256"
        },
        {
          "indexed": false,
          "internalType": "uint256",
          "name": "amount",
          "type": "uint256"
        }
      ],
      "name": "RentPaid",
      "type": "event"
    },
    {
      "anonymous": false,
      "inputs": [
        {
          "indexed": true,
          "internalType": "bytes32",
          "name": "role",
          "type": "bytes32"
        },
        {
          "indexed": true,
          "internalType": "bytes32",
          "name": "previousAdminRole",
          "type": "bytes32"
        },
        {
          "indexed": true,
          "internalType": "bytes32",
          "name": "newAdminRole",
          "type": "bytes32"
        }
      ],
      "name": "RoleAdminChanged",
      "type": "event"
    },
    {
      "anonymous": false,
      "inputs": [
        {
          "indexed": true,
          "internalType": "bytes32",
          "name": "role",
          "type": "bytes32"
        },
        {
          "indexed": true,
          "internalType": "address",
          "name": "account",
          "type": "address"
        },
        {
          "indexed": true,
          "internalType": "address",
          "name": "sender",
          "type": "address"
        }
      ],
      "name": "RoleGranted",
      "type": "event"
    },
    {
      "anonymous": false,
      "inputs": [
        {
          "indexed": true,
          "internalType": "bytes32",
          "name": "role",
          "type": "bytes32"
        },
        {
          "indexed": true,
          "internalType": "address",
          "name": "account",
          "type": "address"
        },
        {
          "indexed": true,
          "internalType": "address",
          "name": "sender",
          "type": "address"
        }
      ],
      "name": "RoleRevoked",
      "type": "event"
    },
    {
      "anonymous": false,
      "inputs": [
        {
          "indexed": true,
          "internalType": "address",
          "name": "player",
          "type": "address"
        }
      ],
      "name": "TurnEnded",
      "type": "event"
    },
    {
      "inputs": [],
      "name": "DEFAULT_ADMIN_ROLE",
      "outputs": [
        {
          "internalType": "bytes32",
          "name": "",
          "type": "bytes32"
        }
      ],
      "stateMutability": "view",
      "type": "function"
    },
    {
      "inputs": [],
      "name": "GAME_ADMIN",
      "outputs": [
        {
          "internalType": "bytes32",
          "name": "",
          "type": "bytes32"
        }
      ],
      "stateMutability": "view",
      "type": "function"
    },
    {
      "inputs": [
        {
          "internalType": "string",
          "name": "name",
          "type": "string"
        },
        {
          "internalType": "uint256",
          "name": "price",
          "type": "uint256"
        },
        {
          "internalType": "uint256",
          "name": "baseRent",
          "type": "uint256"
        },
        {
          "internalType": "string",
          "name": "colorGroup",
          "type": "string"
        },
        {
          "internalType": "uint256",
          "name": "mapPosition",
          "type": "uint256"
        }
      ],
      "name": "addProperty",
      "outputs": [],
      "stateMutability": "nonpayable",
      "type": "function"
    },
    {
      "inputs": [],
      "name": "board",
      "outputs": [
        {
          "internalType": "contract Board",
          "name": "",
          "type": "address"
        }
      ],
      "stateMutability": "view",
      "type": "function"
    },
    {
      "inputs": [
        {
          "internalType": "uint256",
          "name": "propertyId",
          "type": "uint256"
        }
      ],
      "name": "buyProperty",
      "outputs": [],
      "stateMutability": "nonpayable",
      "type": "function"
    },
    {
      "inputs": [
        {
          "internalType": "uint256",
          "name": "propertyId",
          "type": "uint256"
        },
        {
          "internalType": "address",
          "name": "tenant",
          "type": "address"
        }
      ],
      "name": "collectRent",
      "outputs": [],
      "stateMutability": "nonpayable",
      "type": "function"
    },
    {
      "inputs": [],
      "name": "currentTurnIndex",
      "outputs": [
        {
          "internalType": "uint256",
          "name": "",
          "type": "uint256"
        }
      ],
      "stateMutability": "view",
      "type": "function"
    },
    {
      "inputs": [
        {
          "internalType": "address",
          "name": "recipient",
          "type": "address"
        },
        {
          "internalType": "uint256",
          "name": "amount",
          "type": "uint256"
        }
      ],
      "name": "distributeTokens",
      "outputs": [],
      "stateMutability": "nonpayable",
      "type": "function"
    },
    {
      "inputs": [],
      "name": "endTurn",
      "outputs": [],
      "stateMutability": "nonpayable",
      "type": "function"
    },
    {
      "inputs": [
        {
          "internalType": "bytes32",
          "name": "role",
          "type": "bytes32"
        }
      ],
      "name": "getRoleAdmin",
      "outputs": [
        {
          "internalType": "bytes32",
          "name": "",
          "type": "bytes32"
        }
      ],
      "stateMutability": "view",
      "type": "function"
    },
    {
      "inputs": [
        {
          "internalType": "address",
          "name": "admin",
          "type": "address"
        }
      ],
      "name": "grantGameAdmin",
      "outputs": [],
      "stateMutability": "nonpayable",
      "type": "function"
    },
    {
      "inputs": [
        {
          "internalType": "bytes32",
          "name": "role",
          "type": "bytes32"
        },
        {
          "internalType": "address",
          "name": "account",
          "type": "address"
        }
      ],
      "name": "grantRole",
      "outputs": [],
      "stateMutability": "nonpayable",
      "type": "function"
    },
    {
      "inputs": [
        {
          "internalType": "bytes32",
          "name": "role",
          "type": "bytes32"
        },
        {
          "internalType": "address",
          "name": "account",
          "type": "address"
        }
      ],
      "name": "hasRole",
      "outputs": [
        {
          "internalType": "bool",
          "name": "",
          "type": "bool"
        }
      ],
      "stateMutability": "view",
      "type": "function"
    },
    {
      "inputs": [
        {
          "internalType": "address",
          "name": "",
          "type": "address"
        }
      ],
      "name": "hasRolledThisTurn",
      "outputs": [
        {
          "internalType": "bool",
          "name": "",
          "type": "bool"
        }
      ],
      "stateMutability": "view",
      "type": "function"
    },
    {
      "inputs": [],
      "name": "initializeGamePermissions",
      "outputs": [],
      "stateMutability": "nonpayable",
      "type": "function"
    },
    {
      "inputs": [],
      "name": "joinGame",
      "outputs": [],
      "stateMutability": "nonpayable",
      "type": "function"
    },
    {
      "inputs": [],
      "name": "monopolyProperty",
      "outputs": [
        {
          "internalType": "contract IMonopolyProperty",
          "name": "",
          "type": "address"
        }
      ],
      "stateMutability": "view",
      "type": "function"
    },
    {
      "inputs": [
        {
          "internalType": "uint256",
          "name": "steps",
          "type": "uint256"
        }
      ],
      "name": "movePlayer",
      "outputs": [],
      "stateMutability": "nonpayable",
      "type": "function"
    },
    {
      "inputs": [
        {
          "internalType": "uint256",
          "name": "",
          "type": "uint256"
        }
      ],
      "name": "playerAddresses",
      "outputs": [
        {
          "internalType": "address",
          "name": "",
          "type": "address"
        }
      ],
      "stateMutability": "view",
      "type": "function"
    },
    {
      "inputs": [
        {
          "internalType": "address",
          "name": "",
          "type": "address"
        }
      ],
      "name": "players",
      "outputs": [
        {
          "internalType": "address",
          "name": "wallet",
          "type": "address"
        },
        {
          "internalType": "uint256",
          "name": "position",
          "type": "uint256"
        },
        {
          "internalType": "bool",
          "name": "isBankrupt",
          "type": "bool"
        },
        {
          "internalType": "uint256",
          "name": "jailTurns",
          "type": "uint256"
        }
      ],
      "stateMutability": "view",
      "type": "function"
    },
    {
      "inputs": [],
      "name": "renounceGameAdmin",
      "outputs": [],
      "stateMutability": "nonpayable",
      "type": "function"
    },
    {
      "inputs": [
        {
          "internalType": "bytes32",
          "name": "role",
          "type": "bytes32"
        },
        {
          "internalType": "address",
          "name": "account",
          "type": "address"
        }
      ],
      "name": "renounceRole",
      "outputs": [],
      "stateMutability": "nonpayable",
      "type": "function"
    },
    {
      "inputs": [
        {
          "internalType": "bytes32",
          "name": "role",
          "type": "bytes32"
        },
        {
          "internalType": "address",
          "name": "account",
          "type": "address"
        }
      ],
      "name": "revokeRole",
      "outputs": [],
      "stateMutability": "nonpayable",
      "type": "function"
    },
    {
      "inputs": [],
      "name": "skipLabToken",
      "outputs": [
        {
          "internalType": "contract ISkipLabToken",
          "name": "",
          "type": "address"
        }
      ],
      "stateMutability": "view",
      "type": "function"
    },
    {
      "inputs": [
        {
          "internalType": "bytes4",
          "name": "interfaceId",
          "type": "bytes4"
        }
      ],
      "name": "supportsInterface",
      "outputs": [
        {
          "internalType": "bool",
          "name": "",
          "type": "bool"
        }
      ],
      "stateMutability": "view",
      "type": "function"
    },
    {
      "inputs": [
        {
          "internalType": "uint256",
          "name": "propertyId",
          "type": "uint256"
        }
      ],
      "name": "upgradeProperty",
      "outputs": [],
      "stateMutability": "nonpayable",
      "type": "function"
    }
  ],
  "bytecode": "0x60806040523480156200001157600080fd5b50604051620022dd380380620022dd83398101604081905262000034916200017d565b62000041600033620000b0565b6200006d7f745191d59a0c5ecaf2331ad3570e4033c5b04de0434263ec14a70fce5475ab7f33620000b0565b600180546001600160a01b039485166001600160a01b031991821617909155600280549385169382169390931790925560038054919093169116179055620001c7565b620000bc8282620000c0565b5050565b6000828152602081815260408083206001600160a01b038516845290915290205460ff16620000bc576000828152602081815260408083206001600160a01b03851684529091529020805460ff191660011790556200011c3390565b6001600160a01b0316816001600160a01b0316837f2f8788117e7eff1d82e926ec794901d17c78024a50270940304540a733656f0d60405160405180910390a45050565b80516001600160a01b03811681146200017857600080fd5b919050565b6000806000606084860312156200019357600080fd5b6200019e8462000160565b9250620001ae6020850162000160565b9150620001be6040850162000160565b90509250925092565b61210680620001d76000396000f3fe608060405234801561001057600080fd5b506004361061018e5760003560e01c8063747c9a86116100de578063c1f7726411610097578063d547741f11610071578063d547741f1461034e578063dc33a71c14610361578063e2eb41ff14610369578063eea9f1b4146103de57600080fd5b8063c1f7726414610320578063d3a3284714610333578063d4f77b1c1461034657600080fd5b8063747c9a86146102cf5780637cd3229a146102d757806391d14854146102ea578063a217fddf146102fd578063a833b8bf14610305578063ad4577301461030d57600080fd5b806336568abe1161014b5780635504d3d2116101255780635504d3d2146102815780635c9d8f76146102965780636a3fc9d2146102a95780636fa830a6146102bc57600080fd5b806336568abe14610252578063419dff691461026557806350efd2681461027857600080fd5b806301ffc9a714610193578063158a4988146101bb57806315c6aee2146101d0578063248a9ca3146101fb5780632d1e2d441461022c5780632f2ff15d1461023f575b600080fd5b6101a66101a1366004611b73565b610401565b60405190151581526020015b60405180910390f35b6101ce6101c9366004611bb2565b610412565b005b6101e36101de366004611bde565b610495565b6040516001600160a01b0390911681526020016101b2565b61021e610209366004611bde565b60009081526020819052604090206001015490565b6040519081526020016101b2565b6101ce61023a366004611bde565b6104bf565b6101ce61024d366004611bf7565b610764565b6101ce610260366004611bf7565b61078e565b6101ce610273366004611cec565b61080c565b61021e60045481565b61021e6000805160206120b183398151915281565b6101ce6102a4366004611d6b565b6108b0565b6101ce6102b7366004611bde565b6108d3565b6101ce6102ca366004611bde565b610b2f565b6101ce610e34565b6003546101e3906001600160a01b031681565b6101a66102f8366004611bf7565b610e67565b61021e600081565b6101ce610e90565b6002546101e3906001600160a01b031681565b6101ce61032e366004611bf7565b610f5e565b6001546101e3906001600160a01b031681565b6101ce611290565b6101ce61035c366004611bf7565b61147d565b6101ce6114a2565b6103ae610377366004611d6b565b60066020526000908152604090208054600182015460028301546003909301546001600160a01b0390921692909160ff9091169084565b604080516001600160a01b03909516855260208501939093529015159183019190915260608201526080016101b2565b6101a66103ec366004611d6b565b60056020526000908152604090205460ff1681565b600061040c82611792565b92915050565b6000805160206120b183398151915261042a816117c7565b600154604051634eb9029960e01b81526001600160a01b0385811660048301526024820185905290911690634eb9029990604401600060405180830381600087803b15801561047857600080fd5b505af115801561048c573d6000803e3d6000fd5b50505050505050565b600781815481106104a557600080fd5b6000918252602090912001546001600160a01b0316905081565b6002546040516331a9108f60e11b81526004810183905233916001600160a01b031690636352211e9060240160206040518083038186803b15801561050357600080fd5b505afa158015610517573d6000803e3d6000fd5b505050506040513d601f19601f8201168201806040525081019061053b9190611d88565b6001600160a01b0316146105825760405162461bcd60e51b81526020600482015260096024820152682737ba1037bbb732b960b91b60448201526064015b60405180910390fd5b600061058d826117d1565b60015460405163d1660f9960e01b81529192506001600160a01b03169063d1660f99906105c290339030908690600401611da5565b602060405180830381600087803b1580156105dc57600080fd5b505af11580156105f0573d6000803e3d6000fd5b505050506040513d601f19601f820116820180604052508101906106149190611dc9565b6106515760405162461bcd60e51b815260206004820152600e60248201526d14185e5b595b9d0819985a5b195960921b6044820152606401610579565b600254604051630b478b5160e21b8152600481018490526001600160a01b0390911690632d1e2d4490602401600060405180830381600087803b15801561069757600080fd5b505af11580156106ab573d6000803e3d6000fd5b5050600254604051633e6ae4bf60e11b8152600481018690528593507fb742101d13804c8029cfe6242c9e0d4374fec36acf8838f6b3a82ec4510e309f92506001600160a01b0390911690637cd5c97e9060240160206040518083038186803b15801561071757600080fd5b505afa15801561072b573d6000803e3d6000fd5b505050506040513d601f19601f8201168201806040525081019061074f9190611deb565b60405190815260200160405180910390a25050565b60008281526020819052604090206001015461077f816117c7565b6107898383611883565b505050565b6001600160a01b03811633146107fe5760405162461bcd60e51b815260206004820152602f60248201527f416363657373436f6e74726f6c3a2063616e206f6e6c792072656e6f756e636560448201526e103937b632b9903337b91039b2b63360891b6064820152608401610579565b6108088282611907565b5050565b6000805160206120b1833981519152610824816117c7565b600254604051631169a29960e31b81526001600160a01b0390911690638b4d14c89061085e9030908a908a908a908a908a90600401611e60565b602060405180830381600087803b15801561087857600080fd5b505af115801561088c573d6000803e3d6000fd5b505050506040513d601f19601f8201168201806040525081019061048c9190611deb565b60006108bb816117c7565b6108086000805160206120b183398151915283610764565b336001600160a01b03166007600454815481106108f2576108f2611eb6565b6000918252602090912001546001600160a01b0316146109445760405162461bcd60e51b815260206004820152600d60248201526c2737ba103cb7bab9103a3ab93760991b6044820152606401610579565b3360009081526006602052604090206002015460ff16156109995760405162461bcd60e51b815260206004820152600f60248201526e141b185e595c8818985b9adc9d5c1d608a1b6044820152606401610579565b600281101580156109ab5750600c8111155b6109e65760405162461bcd60e51b815260206004820152600c60248201526b496e76616c6964206469636560a01b6044820152606401610579565b3360009081526005602052604090205460ff1615610a365760405162461bcd60e51b815260206004820152600d60248201526c105b1c9958591e481b5bdd9959609a1b6044820152606401610579565b3360009081526006602052604081206001810154909190602890610a5b908590611ee2565b610a659190611efa565b60018381018290553360008181526005602052604090819020805460ff191690931790925560035491516325b3956f60e21b81526004810184905260248101919091529192506001600160a01b0316906396ce55bc90604401600060405180830381600087803b158015610ad857600080fd5b505af1158015610aec573d6000803e3d6000fd5b505060408051338152602081018590527fe0a1b340a14d47a5482875f738abb6e2c70f533d80188606facc527b70cbd212935001905060405180910390a1505050565b3360009081526006602052604090206002015460ff1615610b845760405162461bcd60e51b815260206004820152600f60248201526e141b185e595c8818985b9adc9d5c1d608a1b6044820152606401610579565b6002546040516331a9108f60e11b81526004810183905230916001600160a01b031690636352211e9060240160206040518083038186803b158015610bc857600080fd5b505afa158015610bdc573d6000803e3d6000fd5b505050506040513d601f19601f82011682018060405250810190610c009190611d88565b6001600160a01b031614610c465760405162461bcd60e51b815260206004820152600d60248201526c4e6f7420617661696c61626c6560981b6044820152606401610579565b60025460405163126dbe4360e01b8152600481018390526000916001600160a01b03169063126dbe439060240160006040518083038186803b158015610c8b57600080fd5b505afa158015610c9f573d6000803e3d6000fd5b505050506040513d6000823e601f3d908101601f19168201604052610cc79190810190611f69565b505060015460405163d1660f9960e01b81529395506001600160a01b0316935063d1660f9992610d01925033915030908690600401611da5565b602060405180830381600087803b158015610d1b57600080fd5b505af1158015610d2f573d6000803e3d6000fd5b505050506040513d601f19601f82011682018060405250810190610d539190611dc9565b610d905760405162461bcd60e51b815260206004820152600e60248201526d14185e5b595b9d0819985a5b195960921b6044820152606401610579565b600254604051632142170760e11b81526001600160a01b03909116906342842e0e90610dc490309033908790600401611da5565b600060405180830381600087803b158015610dde57600080fd5b505af1158015610df2573d6000803e3d6000fd5b505060408051338152602081018690527f3c0cade9d270c0005f089d49842bd35076264614be1ca87be18f996825d9e07c935001905060405180910390a15050565b6000805160206120b1833981519152610e4c816117c7565b610e646000805160206120b18339815191523361147d565b50565b6000918252602082815260408084206001600160a01b0393909316845291905290205460ff1690565b336001600160a01b0316600760045481548110610eaf57610eaf611eb6565b6000918252602090912001546001600160a01b031614610f015760405162461bcd60e51b815260206004820152600d60248201526c2737ba103cb7bab9103a3ab93760991b6044820152606401610579565b600754600454610f12906001611ee2565b610f1c9190611efa565b60045533600081815260056020526040808220805460ff19169055517fb599c61049645dc4594c1a57a932529a2d48a1517b9ec792b79a325262e40a519190a2565b610f766000805160206120b183398151915233610e67565b610fb15760405162461bcd60e51b815260206004820152600c60248201526b155b985d5d1a1bdc9a5e995960a21b6044820152606401610579565b6002546040516331a9108f60e11b8152600481018490526000916001600160a01b031690636352211e9060240160206040518083038186803b158015610ff657600080fd5b505afa15801561100a573d6000803e3d6000fd5b505050506040513d601f19601f8201168201806040525081019061102e9190611d88565b6001600160a01b031614156110785760405162461bcd60e51b815260206004820152601060248201526f496e76616c69642070726f706572747960801b6044820152606401610579565b6002546040516331a9108f60e11b8152600481018490526000916001600160a01b031690636352211e9060240160206040518083038186803b1580156110bd57600080fd5b505afa1580156110d1573d6000803e3d6000fd5b505050506040513d601f19601f820116820180604052508101906110f59190611d88565b60025460405163a52873ef60e01b8152600481018690529192506000916001600160a01b039091169063a52873ef9060240160206040518083038186803b15801561113f57600080fd5b505afa158015611153573d6000803e3d6000fd5b505050506040513d601f19601f820116820180604052508101906111779190611deb565b60015460405163d1660f9960e01b81529192506001600160a01b03169063d1660f99906111ac90869086908690600401611da5565b602060405180830381600087803b1580156111c657600080fd5b505af11580156111da573d6000803e3d6000fd5b505050506040513d601f19601f820116820180604052508101906111fe9190611dc9565b6112385760405162461bcd60e51b815260206004820152600b60248201526a14995b9d0819985a5b195960aa1b6044820152606401610579565b604080516001600160a01b03808616825284166020820152908101859052606081018290527f861b80a1390fd7e043897b094108e6073fdeab18fa15a361bcbc4474f7eedd4b9060800160405180910390a150505050565b336000908152600660205260409020546001600160a01b0316156112e75760405162461bcd60e51b815260206004820152600e60248201526d105b1c9958591e481a9bda5b995960921b6044820152606401610579565b60075460061161132f5760405162461bcd60e51b815260206004820152601360248201527213585e081c1b185e595c9cc81c995858da1959606a1b6044820152606401610579565b604080516080810182523380825260006020808401828152848601838152606086018481528585526006909352868420955186546001600160a01b03199081166001600160a01b039283161788559251600180890191909155915160028801805460ff1916911515919091179055925160039096019590955560078054808701825593527fa66cc928b5edb82af9bd49922954155ab7b0942694bea4ce44661d9a8736c6889092018054909216831790915591549251634eb9029960e01b81526004810191909152685150ae84a8cdf000006024820152911690634eb9029990604401600060405180830381600087803b15801561142c57600080fd5b505af1158015611440573d6000803e3d6000fd5b505060075460011415915061147b9050576040517f762f260439bb4be3ef6e4dc2786e2e7bd187d3d80b79057d7a424fe98563e33590600090a15b565b600082815260208190526040902060010154611498816117c7565b6107898383611907565b60006114ad816117c7565b6114b8600030611883565b6114d06000805160206120b183398151915230611883565b600354604080516377e1e4d760e01b815290516000926001600160a01b0316916377e1e4d7916004808301926020929190829003018186803b15801561151557600080fd5b505afa158015611529573d6000803e3d6000fd5b505050506040513d601f19601f8201168201806040525081019061154d9190611deb565b600354604051632f2ff15d60e01b8152600481018390523060248201529192506001600160a01b031690632f2ff15d90604401600060405180830381600087803b15801561159a57600080fd5b505af11580156115ae573d6000803e3d6000fd5b505050506000600260009054906101000a90046001600160a01b03166001600160a01b03166377e1e4d76040518163ffffffff1660e01b815260040160206040518083038186803b15801561160257600080fd5b505afa158015611616573d6000803e3d6000fd5b505050506040513d601f19601f8201168201806040525081019061163a9190611deb565b600254604051632f2ff15d60e01b8152600481018390523060248201529192506001600160a01b031690632f2ff15d90604401600060405180830381600087803b15801561168757600080fd5b505af115801561169b573d6000803e3d6000fd5b505050506000600160009054906101000a90046001600160a01b03166001600160a01b031663ab4007066040518163ffffffff1660e01b815260040160206040518083038186803b1580156116ef57600080fd5b505afa158015611703573d6000803e3d6000fd5b505050506040513d601f19601f820116820180604052508101906117279190611deb565b600154604051632f2ff15d60e01b8152600481018390523060248201529192506001600160a01b031690632f2ff15d90604401600060405180830381600087803b15801561177457600080fd5b505af1158015611788573d6000803e3d6000fd5b5050505050505050565b60006001600160e01b03198216637965db0b60e01b148061040c57506301ffc9a760e01b6001600160e01b031983161461040c565b610e64813361196c565b600254604051633e6ae4bf60e11b81526004810183905260009182916001600160a01b0390911690637cd5c97e9060240160206040518083038186803b15801561181a57600080fd5b505afa15801561182e573d6000803e3d6000fd5b505050506040513d601f19601f820116820180604052508101906118529190611deb565b905061185f816001611ee2565b61186a906064611ff2565b61187c90670de0b6b3a7640000611ff2565b9392505050565b61188d8282610e67565b610808576000828152602081815260408083206001600160a01b03851684529091529020805460ff191660011790556118c33390565b6001600160a01b0316816001600160a01b0316837f2f8788117e7eff1d82e926ec794901d17c78024a50270940304540a733656f0d60405160405180910390a45050565b6119118282610e67565b15610808576000828152602081815260408083206001600160a01b0385168085529252808320805460ff1916905551339285917ff6391f5c32d9c69d2a47ea670b442974b53935d1edc7fd64eb21e047a839171b9190a45050565b6119768282610e67565b61080857611983816119c5565b61198e8360206119d7565b60405160200161199f929190612011565b60408051601f198184030181529082905262461bcd60e51b825261057991600401612086565b606061040c6001600160a01b03831660145b606060006119e6836002611ff2565b6119f1906002611ee2565b67ffffffffffffffff811115611a0957611a09611c27565b6040519080825280601f01601f191660200182016040528015611a33576020820181803683370190505b509050600360fc1b81600081518110611a4e57611a4e611eb6565b60200101906001600160f81b031916908160001a905350600f60fb1b81600181518110611a7d57611a7d611eb6565b60200101906001600160f81b031916908160001a9053506000611aa1846002611ff2565b611aac906001611ee2565b90505b6001811115611b24576f181899199a1a9b1b9c1cb0b131b232b360811b85600f1660108110611ae057611ae0611eb6565b1a60f81b828281518110611af657611af6611eb6565b60200101906001600160f81b031916908160001a90535060049490941c93611b1d81612099565b9050611aaf565b50831561187c5760405162461bcd60e51b815260206004820181905260248201527f537472696e67733a20686578206c656e67746820696e73756666696369656e746044820152606401610579565b600060208284031215611b8557600080fd5b81356001600160e01b03198116811461187c57600080fd5b6001600160a01b0381168114610e6457600080fd5b60008060408385031215611bc557600080fd5b8235611bd081611b9d565b946020939093013593505050565b600060208284031215611bf057600080fd5b5035919050565b60008060408385031215611c0a57600080fd5b823591506020830135611c1c81611b9d565b809150509250929050565b634e487b7160e01b600052604160045260246000fd5b604051601f8201601f1916810167ffffffffffffffff81118282101715611c6657611c66611c27565b604052919050565b600067ffffffffffffffff821115611c8857611c88611c27565b50601f01601f191660200190565b600082601f830112611ca757600080fd5b8135611cba611cb582611c6e565b611c3d565b818152846020838601011115611ccf57600080fd5b816020850160208301376000918101602001919091529392505050565b600080600080600060a08688031215611d0457600080fd5b853567ffffffffffffffff80821115611d1c57600080fd5b611d2889838a01611c96565b965060208801359550604088013594506060880135915080821115611d4c57600080fd5b50611d5988828901611c96565b95989497509295608001359392505050565b600060208284031215611d7d57600080fd5b813561187c81611b9d565b600060208284031215611d9a57600080fd5b815161187c81611b9d565b6001600160a01b039384168152919092166020820152604081019190915260600190565b600060208284031215611ddb57600080fd5b8151801515811461187c57600080fd5b600060208284031215611dfd57600080fd5b5051919050565b60005b83811015611e1f578181015183820152602001611e07565b83811115611e2e576000848401525b50505050565b60008151808452611e4c816020860160208601611e04565b601f01601f19169290920160200192915050565b6001600160a01b038716815260c060208201819052600090611e8490830188611e34565b8660408401528560608401528281036080840152611ea28186611e34565b9150508260a0830152979650505050505050565b634e487b7160e01b600052603260045260246000fd5b634e487b7160e01b600052601160045260246000fd5b60008219821115611ef557611ef5611ecc565b500190565b600082611f1757634e487b7160e01b600052601260045260246000fd5b500690565b600082601f830112611f2d57600080fd5b8151611f3b611cb582611c6e565b818152846020838601011115611f5057600080fd5b611f61826020830160208701611e04565b949350505050565b60008060008060008060c08789031215611f8257600080fd5b865167ffffffffffffffff80821115611f9a57600080fd5b611fa68a838b01611f1c565b975060208901519650604089015195506060890151915080821115611fca57600080fd5b50611fd789828a01611f1c565b9350506080870151915060a087015190509295509295509295565b600081600019048311821515161561200c5761200c611ecc565b500290565b7f416363657373436f6e74726f6c3a206163636f756e7420000000000000000000815260008351612049816017850160208801611e04565b7001034b99036b4b9b9b4b733903937b6329607d1b601791840191820152835161207a816028840160208801611e04565b01602801949350505050565b60208152600061187c6020830184611e34565b6000816120a8576120a8611ecc565b50600019019056fe745191d59a0c5ecaf2331ad3570e4033c5b04de0434263ec14a70fce5475ab7fa2646970667358221220bf8aae2baa6c73d66a48b29d14577771c1442148b823dfba78eef72f6dc538b264736f6c63430008090033",
  "linkReferences": {},
  "deployedLinkReferences": {}
}