{
  "_format": "hh-sol-artifact-1",
  "contractName": "MonopolyProperty",
  "sourceName": "contracts/MonopolyProperty.sol",
  "abi": [
    {
      "inputs": [],
      "stateMutability": "nonpayable",
      "type": "constructor"
    },
    {
      "anonymous": false,
      "inputs": [
        {
          "indexed": true,
          "internalType": "address",
          "name": "owner",
          "type": "address"
        },
        {
          "indexed": true,
          "internalType": "address",
          "name": "approved",
          "type": "address"
        },
        {
          "indexed": true,
          "internalType": "uint256",
          "name": "tokenId",
          "type": "uint256"
        }
      ],
      "name": "Approval",
      "type": "event"
    },
    {
      "anonymous": false,
      "inputs": [
        {
          "indexed": true,
          "internalType": "address",
          "name": "owner",
          "type": "address"
        },
        {
          "indexed": true,
          "internalType": "address",
          "name": "operator",
          "type": "address"
        },
        {
          "indexed": false,
          "internalType": "bool",
          "name": "approved",
          "type": "bool"
        }
      ],
      "name": "ApprovalForAll",
      "type": "event"
    },
    {
      "anonymous": false,
      "inputs": [
        {
          "indexed": true,
          "internalType": "uint256",
          "name": "tokenId",
          "type": "uint256"
        },
        {
          "indexed": false,
          "internalType": "uint256",
          "name": "newLevel",
          "type": "uint256"
        }
      ],
      "name": "PropertyUpgraded",
      "type": "event"
    },
    {
      "anonymous": false,
      "inputs": [
        {
          "indexed": true,
          "internalType": "bytes32",
          "name": "role",
          "type": "bytes32"
        },
        {
          "indexed": true,
          "internalType": "bytes32",
          "name": "previousAdminRole",
          "type": "bytes32"
        },
        {
          "indexed": true,
          "internalType": "bytes32",
          "name": "newAdminRole",
          "type": "bytes32"
        }
      ],
      "name": "RoleAdminChanged",
      "type": "event"
    },
    {
      "anonymous": false,
      "inputs": [
        {
          "indexed": true,
          "internalType": "bytes32",
          "name": "role",
          "type": "bytes32"
        },
        {
          "indexed": true,
          "internalType": "address",
          "name": "account",
          "type": "address"
        },
        {
          "indexed": true,
          "internalType": "address",
          "name": "sender",
          "type": "address"
        }
      ],
      "name": "RoleGranted",
      "type": "event"
    },
    {
      "anonymous": false,
      "inputs": [
        {
          "indexed": true,
          "internalType": "bytes32",
          "name": "role",
          "type": "bytes32"
        },
        {
          "indexed": true,
          "internalType": "address",
          "name": "account",
          "type": "address"
        },
        {
          "indexed": true,
          "internalType": "address",
          "name": "sender",
          "type": "address"
        }
      ],
      "name": "RoleRevoked",
      "type": "event"
    },
    {
      "anonymous": false,
      "inputs": [
        {
          "indexed": true,
          "internalType": "address",
          "name": "from",
          "type": "address"
        },
        {
          "indexed": true,
          "internalType": "address",
          "name": "to",
          "type": "address"
        },
        {
          "indexed": true,
          "internalType": "uint256",
          "name": "tokenId",
          "type": "uint256"
        }
      ],
      "name": "Transfer",
      "type": "event"
    },
    {
      "inputs": [],
      "name": "DEFAULT_ADMIN_ROLE",
      "outputs": [
        {
          "internalType": "bytes32",
          "name": "",
          "type": "bytes32"
        }
      ],
      "stateMutability": "view",
      "type": "function"
    },
    {
      "inputs": [],
      "name": "GAME_CONTRACT",
      "outputs": [
        {
          "internalType": "bytes32",
          "name": "",
          "type": "bytes32"
        }
      ],
      "stateMutability": "view",
      "type": "function"
    },
    {
      "inputs": [],
      "name": "MAX_LEVEL",
      "outputs": [
        {
          "internalType": "uint256",
          "name": "",
          "type": "uint256"
        }
      ],
      "stateMutability": "view",
      "type": "function"
    },
    {
      "inputs": [
        {
          "internalType": "address",
          "name": "to",
          "type": "address"
        },
        {
          "internalType": "uint256",
          "name": "tokenId",
          "type": "uint256"
        }
      ],
      "name": "approve",
      "outputs": [],
      "stateMutability": "nonpayable",
      "type": "function"
    },
    {
      "inputs": [
        {
          "internalType": "address",
          "name": "owner",
          "type": "address"
        }
      ],
      "name": "balanceOf",
      "outputs": [
        {
          "internalType": "uint256",
          "name": "",
          "type": "uint256"
        }
      ],
      "stateMutability": "view",
      "type": "function"
    },
    {
      "inputs": [
        {
          "internalType": "uint256",
          "name": "tokenId",
          "type": "uint256"
        }
      ],
      "name": "getApproved",
      "outputs": [
        {
          "internalType": "address",
          "name": "",
          "type": "address"
        }
      ],
      "stateMutability": "view",
      "type": "function"
    },
    {
      "inputs": [
        {
          "internalType": "uint256",
          "name": "tokenId",
          "type": "uint256"
        }
      ],
      "name": "getColorGroup",
      "outputs": [
        {
          "internalType": "string",
          "name": "",
          "type": "string"
        }
      ],
      "stateMutability": "view",
      "type": "function"
    },
    {
      "inputs": [
        {
          "internalType": "uint256",
          "name": "tokenId",
          "type": "uint256"
        }
      ],
      "name": "getCurrentRent",
      "outputs": [
        {
          "internalType": "uint256",
          "name": "",
          "type": "uint256"
        }
      ],
      "stateMutability": "view",
      "type": "function"
    },
    {
      "inputs": [
        {
          "internalType": "uint256",
          "name": "tokenId",
          "type": "uint256"
        }
      ],
      "name": "getPropertyDetails",
      "outputs": [
        {
          "internalType": "string",
          "name": "name",
          "type": "string"
        },
        {
          "internalType": "uint256",
          "name": "price",
          "type": "uint256"
        },
        {
          "internalType": "uint256",
          "name": "currentRent",
          "type": "uint256"
        },
        {
          "internalType": "string",
          "name": "colorGroup",
          "type": "string"
        },
        {
          "internalType": "uint256",
          "name": "level",
          "type": "uint256"
        },
        {
          "internalType": "uint256",
          "name": "position",
          "type": "uint256"
        }
      ],
      "stateMutability": "view",
      "type": "function"
    },
    {
      "inputs": [
        {
          "internalType": "uint256",
          "name": "tokenId",
          "type": "uint256"
        }
      ],
      "name": "getPropertyPosition",
      "outputs": [
        {
          "internalType": "uint256",
          "name": "",
          "type": "uint256"
        }
      ],
      "stateMutability": "view",
      "type": "function"
    },
    {
      "inputs": [
        {
          "internalType": "uint256",
          "name": "tokenId",
          "type": "uint256"
        }
      ],
      "name": "getPropertyPrice",
      "outputs": [
        {
          "internalType": "uint256",
          "name": "",
          "type": "uint256"
        }
      ],
      "stateMutability": "view",
      "type": "function"
    },
    {
      "inputs": [
        {
          "internalType": "bytes32",
          "name": "role",
          "type": "bytes32"
        }
      ],
      "name": "getRoleAdmin",
      "outputs": [
        {
          "internalType": "bytes32",
          "name": "",
          "type": "bytes32"
        }
      ],
      "stateMutability": "view",
      "type": "function"
    },
    {
      "inputs": [
        {
          "internalType": "address",
          "name": "game",
          "type": "address"
        }
      ],
      "name": "grantGameRole",
      "outputs": [],
      "stateMutability": "nonpayable",
      "type": "function"
    },
    {
      "inputs": [
        {
          "internalType": "bytes32",
          "name": "role",
          "type": "bytes32"
        },
        {
          "internalType": "address",
          "name": "account",
          "type": "address"
        }
      ],
      "name": "grantRole",
      "outputs": [],
      "stateMutability": "nonpayable",
      "type": "function"
    },
    {
      "inputs": [
        {
          "internalType": "bytes32",
          "name": "role",
          "type": "bytes32"
        },
        {
          "internalType": "address",
          "name": "account",
          "type": "address"
        }
      ],
      "name": "hasRole",
      "outputs": [
        {
          "internalType": "bool",
          "name": "",
          "type": "bool"
        }
      ],
      "stateMutability": "view",
      "type": "function"
    },
    {
      "inputs": [
        {
          "internalType": "address",
          "name": "owner",
          "type": "address"
        },
        {
          "internalType": "address",
          "name": "operator",
          "type": "address"
        }
      ],
      "name": "isApprovedForAll",
      "outputs": [
        {
          "internalType": "bool",
          "name": "",
          "type": "bool"
        }
      ],
      "stateMutability": "view",
      "type": "function"
    },
    {
      "inputs": [
        {
          "internalType": "address",
          "name": "player",
          "type": "address"
        },
        {
          "internalType": "string",
          "name": "name",
          "type": "string"
        },
        {
          "internalType": "uint256",
          "name": "price",
          "type": "uint256"
        },
        {
          "internalType": "uint256",
          "name": "baseRent",
          "type": "uint256"
        },
        {
          "internalType": "string",
          "name": "colorGroup",
          "type": "string"
        },
        {
          "internalType": "uint256",
          "name": "mapPosition",
          "type": "uint256"
        }
      ],
      "name": "mintProperty",
      "outputs": [
        {
          "internalType": "uint256",
          "name": "",
          "type": "uint256"
        }
      ],
      "stateMutability": "nonpayable",
      "type": "function"
    },
    {
      "inputs": [],
      "name": "name",
      "outputs": [
        {
          "internalType": "string",
          "name": "",
          "type": "string"
        }
      ],
      "stateMutability": "view",
      "type": "function"
    },
    {
      "inputs": [
        {
          "internalType": "uint256",
          "name": "tokenId",
          "type": "uint256"
        }
      ],
      "name": "ownerOf",
      "outputs": [
        {
          "internalType": "address",
          "name": "",
          "type": "address"
        }
      ],
      "stateMutability": "view",
      "type": "function"
    },
    {
      "inputs": [
        {
          "internalType": "uint256",
          "name": "",
          "type": "uint256"
        }
      ],
      "name": "propertyLevels",
      "outputs": [
        {
          "internalType": "uint256",
          "name": "",
          "type": "uint256"
        }
      ],
      "stateMutability": "view",
      "type": "function"
    },
    {
      "inputs": [
        {
          "internalType": "bytes32",
          "name": "role",
          "type": "bytes32"
        },
        {
          "internalType": "address",
          "name": "account",
          "type": "address"
        }
      ],
      "name": "renounceRole",
      "outputs": [],
      "stateMutability": "nonpayable",
      "type": "function"
    },
    {
      "inputs": [
        {
          "internalType": "bytes32",
          "name": "role",
          "type": "bytes32"
        },
        {
          "internalType": "address",
          "name": "account",
          "type": "address"
        }
      ],
      "name": "revokeRole",
      "outputs": [],
      "stateMutability": "nonpayable",
      "type": "function"
    },
    {
      "inputs": [
        {
          "internalType": "address",
          "name": "from",
          "type": "address"
        },
        {
          "internalType": "address",
          "name": "to",
          "type": "address"
        },
        {
          "internalType": "uint256",
          "name": "tokenId",
          "type": "uint256"
        }
      ],
      "name": "safeTransferFrom",
      "outputs": [],
      "stateMutability": "nonpayable",
      "type": "function"
    },
    {
      "inputs": [
        {
          "internalType": "address",
          "name": "from",
          "type": "address"
        },
        {
          "internalType": "address",
          "name": "to",
          "type": "address"
        },
        {
          "internalType": "uint256",
          "name": "tokenId",
          "type": "uint256"
        },
        {
          "internalType": "bytes",
          "name": "data",
          "type": "bytes"
        }
      ],
      "name": "safeTransferFrom",
      "outputs": [],
      "stateMutability": "nonpayable",
      "type": "function"
    },
    {
      "inputs": [
        {
          "internalType": "address",
          "name": "operator",
          "type": "address"
        },
        {
          "internalType": "bool",
          "name": "approved",
          "type": "bool"
        }
      ],
      "name": "setApprovalForAll",
      "outputs": [],
      "stateMutability": "nonpayable",
      "type": "function"
    },
    {
      "inputs": [
        {
          "internalType": "bytes4",
          "name": "interfaceId",
          "type": "bytes4"
        }
      ],
      "name": "supportsInterface",
      "outputs": [
        {
          "internalType": "bool",
          "name": "",
          "type": "bool"
        }
      ],
      "stateMutability": "view",
      "type": "function"
    },
    {
      "inputs": [],
      "name": "symbol",
      "outputs": [
        {
          "internalType": "string",
          "name": "",
          "type": "string"
        }
      ],
      "stateMutability": "view",
      "type": "function"
    },
    {
      "inputs": [
        {
          "internalType": "uint256",
          "name": "tokenId",
          "type": "uint256"
        }
      ],
      "name": "tokenURI",
      "outputs": [
        {
          "internalType": "string",
          "name": "",
          "type": "string"
        }
      ],
      "stateMutability": "view",
      "type": "function"
    },
    {
      "inputs": [
        {
          "internalType": "address",
          "name": "from",
          "type": "address"
        },
        {
          "internalType": "address",
          "name": "to",
          "type": "address"
        },
        {
          "internalType": "uint256",
          "name": "tokenId",
          "type": "uint256"
        }
      ],
      "name": "transferFrom",
      "outputs": [],
      "stateMutability": "nonpayable",
      "type": "function"
    },
    {
      "inputs": [
        {
          "internalType": "uint256",
          "name": "tokenId",
          "type": "uint256"
        }
      ],
      "name": "upgradeProperty",
      "outputs": [],
      "stateMutability": "nonpayable",
      "type": "function"
    }
  ],
  "bytecode": "0x60806040523480156200001157600080fd5b50604080518082018252601081526f4d6f6e6f706f6c7950726f706572747960801b60208083019182528351808501909452600584526404d50524f560dc1b9084015281519192916200006791600091620001c1565b5080516200007d906001906020840190620001c1565b506200008f91506000905033620000c2565b620000bc7f78a8708a3a199518d3505c5ab9ae6d9c4738044ca9641d04e1c8b4d0e64941af6000620000d2565b620002a4565b620000ce82826200011d565b5050565b600082815260066020526040808220600101805490849055905190918391839186917fbd79b86ffe0ab8e8776151514217cd7cacd52c909f66475c3af44e129f0b00ff9190a4505050565b60008281526006602090815260408083206001600160a01b038516845290915290205460ff16620000ce5760008281526006602090815260408083206001600160a01b03851684529091529020805460ff191660011790556200017d3390565b6001600160a01b0316816001600160a01b0316837f2f8788117e7eff1d82e926ec794901d17c78024a50270940304540a733656f0d60405160405180910390a45050565b828054620001cf9062000267565b90600052602060002090601f016020900481019282620001f357600085556200023e565b82601f106200020e57805160ff19168380011785556200023e565b828001600101855582156200023e579182015b828111156200023e57825182559160200191906001019062000221565b506200024c92915062000250565b5090565b5b808211156200024c576000815560010162000251565b600181811c908216806200027c57607f821691505b602082108114156200029e57634e487b7160e01b600052602260045260246000fd5b50919050565b61221980620002b46000396000f3fe608060405234801561001057600080fd5b50600436106101da5760003560e01c806370a0823111610104578063a22cb465116100a2578063c87b56dd11610071578063c87b56dd1461042c578063d547741f1461043f578063e985e9c514610452578063f1d19e071461048e57600080fd5b8063a22cb465146103eb578063a49062d4146103fe578063a52873ef14610406578063b88d4fde1461041957600080fd5b80638b4d14c8116100de5780638b4d14c8146103b557806391d14854146103c857806395d89b41146103db578063a217fddf146103e357600080fd5b806370a082311461036d57806377e1e4d7146103805780637cd5c97e1461039557600080fd5b806323b872dd1161017c57806336568abe1161014b57806336568abe1461032157806342842e0e146103345780635b6989c2146103475780636352211e1461035a57600080fd5b806323b872dd146102c5578063248a9ca3146102d85780632d1e2d44146102fb5780632f2ff15d1461030e57600080fd5b8063081812fc116101b8578063081812fc1461023d578063095ea7b314610268578063126dbe431461027d57806320b3619f146102a257600080fd5b806301ffc9a7146101df57806306fdde03146102075780630789752c1461021c575b600080fd5b6101f26101ed366004611b20565b6104a1565b60405190151581526020015b60405180910390f35b61020f6104b2565b6040516101fe9190611b95565b61022f61022a366004611ba8565b610544565b6040519081526020016101fe565b61025061024b366004611ba8565b61055d565b6040516001600160a01b0390911681526020016101fe565b61027b610276366004611bdd565b610584565b005b61029061028b366004611ba8565b61069f565b6040516101fe96959493929190611c07565b61022f6102b0366004611ba8565b60009081526009602052604090206004015490565b61027b6102d3366004611c4e565b6108b2565b61022f6102e6366004611ba8565b60009081526006602052604090206001015490565b61027b610309366004611ba8565b6108e4565b61027b61031c366004611c8a565b610a14565b61027b61032f366004611c8a565b610a39565b61027b610342366004611c4e565b610ab7565b61020f610355366004611ba8565b610b4e565b610250610368366004611ba8565b610bf3565b61022f61037b366004611cb6565b610bfe565b61022f6000805160206121c483398151915281565b61022f6103a3366004611ba8565b60086020526000908152604090205481565b61022f6103c3366004611d7d565b610c84565b6101f26103d6366004611c8a565b610d55565b61020f610d80565b61022f600081565b61027b6103f9366004611e0d565b610d8f565b61022f600581565b61022f610414366004611ba8565b610d9a565b61027b610427366004611e49565b610de8565b61020f61043a366004611ba8565b610e20565b61027b61044d366004611c8a565b610e94565b6101f2610460366004611ec5565b6001600160a01b03918216600090815260056020908152604080832093909416825291909152205460ff1690565b61027b61049c366004611cb6565b610eb9565b60006104ac82610edc565b92915050565b6060600080546104c190611eef565b80601f01602080910402602001604051908101604052809291908181526020018280546104ed90611eef565b801561053a5780601f1061050f5761010080835404028352916020019161053a565b820191906000526020600020905b81548152906001019060200180831161051d57829003601f168201915b5050505050905090565b6000806105508361069f565b5092979650505050505050565b600061056882610f01565b506000908152600460205260409020546001600160a01b031690565b600061058f82610f63565b9050806001600160a01b0316836001600160a01b031614156106025760405162461bcd60e51b815260206004820152602160248201527f4552433732313a20617070726f76616c20746f2063757272656e74206f776e656044820152603960f91b60648201526084015b60405180910390fd5b336001600160a01b038216148061061e575061061e8133610460565b6106905760405162461bcd60e51b815260206004820152603d60248201527f4552433732313a20617070726f76652063616c6c6572206973206e6f7420746f60448201527f6b656e206f776e6572206f7220617070726f76656420666f7220616c6c00000060648201526084016105f9565b61069a8383610fc3565b505050565b606060008060606000806106ca876000908152600260205260409020546001600160a01b0316151590565b6107165760405162461bcd60e51b815260206004820152601760248201527f50726f706572747920646f6573206e6f7420657869737400000000000000000060448201526064016105f9565b600087815260096020526040808220815160a0810190925280548290829061073d90611eef565b80601f016020809104026020016040519081016040528092919081815260200182805461076990611eef565b80156107b65780601f1061078b576101008083540402835291602001916107b6565b820191906000526020600020905b81548152906001019060200180831161079957829003601f168201915b5050505050815260200160018201548152602001600282015481526020016003820180546107e390611eef565b80601f016020809104026020016040519081016040528092919081815260200182805461080f90611eef565b801561085c5780601f106108315761010080835404028352916020019161085c565b820191906000526020600020905b81548152906001019060200180831161083f57829003601f168201915b505050505081526020016004820154815250509050806000015181602001516108848a610d9a565b606084015160009b8c5260086020526040909b2054608090940151929b919a90995097509195509350915050565b6108bd335b82611031565b6108d95760405162461bcd60e51b81526004016105f990611f2a565b61069a8383836110b0565b336108ee82610bf3565b6001600160a01b0316148061091657506109166000805160206121c483398151915233610d55565b6109535760405162461bcd60e51b815260206004820152600e60248201526d139bdd08185d5d1a1bdc9a5e995960921b60448201526064016105f9565b6000818152600860205260409020546005116109a55760405162461bcd60e51b815260206004820152601160248201527013585e081b195d995b081c995858da1959607a1b60448201526064016105f9565b60008181526008602052604081208054916109bf83611f8d565b9190505550807fb742101d13804c8029cfe6242c9e0d4374fec36acf8838f6b3a82ec4510e309f6008600084815260200190815260200160002054604051610a0991815260200190565b60405180910390a250565b600082815260066020526040902060010154610a2f81611214565b61069a838361121e565b6001600160a01b0381163314610aa95760405162461bcd60e51b815260206004820152602f60248201527f416363657373436f6e74726f6c3a2063616e206f6e6c792072656e6f756e636560448201526e103937b632b9903337b91039b2b63360891b60648201526084016105f9565b610ab382826112a4565b5050565b610ac0336108b7565b80610ade5750610ade6000805160206121c483398151915233610d55565b610b215760405162461bcd60e51b8152602060048201526014602482015273151c985b9cd9995c881b9bdd08185b1b1bddd95960621b60448201526064016105f9565b60008181526008602090815260408083208390558051918201905290815261069a9084908490849061130b565b6000818152600960205260409020600301805460609190610b6e90611eef565b80601f0160208091040260200160405190810160405280929190818152602001828054610b9a90611eef565b8015610be75780601f10610bbc57610100808354040283529160200191610be7565b820191906000526020600020905b815481529060010190602001808311610bca57829003601f168201915b50505050509050919050565b60006104ac82610f63565b60006001600160a01b038216610c685760405162461bcd60e51b815260206004820152602960248201527f4552433732313a2061646472657373207a65726f206973206e6f7420612076616044820152683634b21037bbb732b960b91b60648201526084016105f9565b506001600160a01b031660009081526003602052604090205490565b60006000805160206121c4833981519152610c9e81611214565b610cac600780546001019055565b6000610cb760075490565b9050610cc3898261133e565b6040805160a08101825289815260208082018a90528183018990526060820188905260808201879052600084815260098252929092208151805192939192610d0e9284920190611a71565b5060208281015160018301556040830151600283015560608301518051610d3b9260038501920190611a71565b506080919091015160049091015598975050505050505050565b60009182526006602090815260408084206001600160a01b0393909316845291905290205460ff1690565b6060600180546104c190611eef565b610ab33383836114c9565b600081815260086020526040812054606490610db7906032611fa8565b610dc2906064611fc7565b600084815260096020526040902060020154610dde9190611fa8565b6104ac9190611fdf565b610df23383611031565b610e0e5760405162461bcd60e51b81526004016105f990611f2a565b610e1a8484848461130b565b50505050565b6060610e2b82610f01565b6000610e4260408051602081019091526000815290565b90506000815111610e625760405180602001604052806000815250610e8d565b80610e6c84611598565b604051602001610e7d929190612001565b6040516020818303038152906040525b9392505050565b600082815260066020526040902060010154610eaf81611214565b61069a83836112a4565b6000610ec481611214565b610ab36000805160206121c48339815191528361121e565b60006001600160e01b03198216637965db0b60e01b14806104ac57506104ac82611635565b6000818152600260205260409020546001600160a01b0316610f605760405162461bcd60e51b8152602060048201526018602482015277115490cdcc8c4e881a5b9d985b1a59081d1bdad95b88125160421b60448201526064016105f9565b50565b6000818152600260205260408120546001600160a01b0316806104ac5760405162461bcd60e51b8152602060048201526018602482015277115490cdcc8c4e881a5b9d985b1a59081d1bdad95b88125160421b60448201526064016105f9565b600081815260046020526040902080546001600160a01b0319166001600160a01b0384169081179091558190610ff882610f63565b6001600160a01b03167f8c5be1e5ebec7d5bd14f71427d1e84f3dd0314c0f7b2291e5b200ac8c7c3b92560405160405180910390a45050565b60008061103d83610f63565b9050806001600160a01b0316846001600160a01b0316148061108457506001600160a01b0380821660009081526005602090815260408083209388168352929052205460ff165b806110a85750836001600160a01b031661109d8461055d565b6001600160a01b0316145b949350505050565b826001600160a01b03166110c382610f63565b6001600160a01b0316146110e95760405162461bcd60e51b81526004016105f990612030565b6001600160a01b03821661114b5760405162461bcd60e51b8152602060048201526024808201527f4552433732313a207472616e7366657220746f20746865207a65726f206164646044820152637265737360e01b60648201526084016105f9565b826001600160a01b031661115e82610f63565b6001600160a01b0316146111845760405162461bcd60e51b81526004016105f990612030565b600081815260046020908152604080832080546001600160a01b03199081169091556001600160a01b0387811680865260038552838620805460001901905590871680865283862080546001019055868652600290945282852080549092168417909155905184937fddf252ad1be2c89b69c2b068fc378daa952ba7f163c4a11628f55a4df523b3ef91a4505050565b610f608133611685565b6112288282610d55565b610ab35760008281526006602090815260408083206001600160a01b03851684529091529020805460ff191660011790556112603390565b6001600160a01b0316816001600160a01b0316837f2f8788117e7eff1d82e926ec794901d17c78024a50270940304540a733656f0d60405160405180910390a45050565b6112ae8282610d55565b15610ab35760008281526006602090815260408083206001600160a01b0385168085529252808320805460ff1916905551339285917ff6391f5c32d9c69d2a47ea670b442974b53935d1edc7fd64eb21e047a839171b9190a45050565b6113168484846110b0565b611322848484846116de565b610e1a5760405162461bcd60e51b81526004016105f990612075565b6001600160a01b0382166113945760405162461bcd60e51b815260206004820181905260248201527f4552433732313a206d696e7420746f20746865207a65726f206164647265737360448201526064016105f9565b6000818152600260205260409020546001600160a01b0316156113f95760405162461bcd60e51b815260206004820152601c60248201527f4552433732313a20746f6b656e20616c7265616479206d696e7465640000000060448201526064016105f9565b6000818152600260205260409020546001600160a01b03161561145e5760405162461bcd60e51b815260206004820152601c60248201527f4552433732313a20746f6b656e20616c7265616479206d696e7465640000000060448201526064016105f9565b6001600160a01b038216600081815260036020908152604080832080546001019055848352600290915280822080546001600160a01b0319168417905551839291907fddf252ad1be2c89b69c2b068fc378daa952ba7f163c4a11628f55a4df523b3ef908290a45050565b816001600160a01b0316836001600160a01b0316141561152b5760405162461bcd60e51b815260206004820152601960248201527f4552433732313a20617070726f766520746f2063616c6c65720000000000000060448201526064016105f9565b6001600160a01b03838116600081815260056020908152604080832094871680845294825291829020805460ff191686151590811790915591519182527f17307eab39ab6107e8899845ad3d59bd9653f200f220920489ca2b5937696c31910160405180910390a3505050565b606060006115a5836117eb565b600101905060008167ffffffffffffffff8111156115c5576115c5611cd1565b6040519080825280601f01601f1916602001820160405280156115ef576020820181803683370190505b5090508181016020015b600019016f181899199a1a9b1b9c1cb0b131b232b360811b600a86061a8153600a85049450846116285761162d565b6115f9565b509392505050565b60006001600160e01b031982166380ac58cd60e01b148061166657506001600160e01b03198216635b5e139f60e01b145b806104ac57506301ffc9a760e01b6001600160e01b03198316146104ac565b61168f8282610d55565b610ab35761169c816118c3565b6116a78360206118d5565b6040516020016116b89291906120c7565b60408051601f198184030181529082905262461bcd60e51b82526105f991600401611b95565b60006001600160a01b0384163b156117e057604051630a85bd0160e11b81526001600160a01b0385169063150b7a029061172290339089908890889060040161213c565b602060405180830381600087803b15801561173c57600080fd5b505af192505050801561176c575060408051601f3d908101601f1916820190925261176991810190612179565b60015b6117c6573d80801561179a576040519150601f19603f3d011682016040523d82523d6000602084013e61179f565b606091505b5080516117be5760405162461bcd60e51b81526004016105f990612075565b805181602001fd5b6001600160e01b031916630a85bd0160e11b1490506110a8565b506001949350505050565b60008072184f03e93ff9f4daa797ed6e38ed64bf6a1f0160401b831061182a5772184f03e93ff9f4daa797ed6e38ed64bf6a1f0160401b830492506040015b6d04ee2d6d415b85acef81000000008310611856576d04ee2d6d415b85acef8100000000830492506020015b662386f26fc10000831061187457662386f26fc10000830492506010015b6305f5e100831061188c576305f5e100830492506008015b61271083106118a057612710830492506004015b606483106118b2576064830492506002015b600a83106104ac5760010192915050565b60606104ac6001600160a01b03831660145b606060006118e4836002611fa8565b6118ef906002611fc7565b67ffffffffffffffff81111561190757611907611cd1565b6040519080825280601f01601f191660200182016040528015611931576020820181803683370190505b509050600360fc1b8160008151811061194c5761194c612196565b60200101906001600160f81b031916908160001a905350600f60fb1b8160018151811061197b5761197b612196565b60200101906001600160f81b031916908160001a905350600061199f846002611fa8565b6119aa906001611fc7565b90505b6001811115611a22576f181899199a1a9b1b9c1cb0b131b232b360811b85600f16601081106119de576119de612196565b1a60f81b8282815181106119f4576119f4612196565b60200101906001600160f81b031916908160001a90535060049490941c93611a1b816121ac565b90506119ad565b508315610e8d5760405162461bcd60e51b815260206004820181905260248201527f537472696e67733a20686578206c656e67746820696e73756666696369656e7460448201526064016105f9565b828054611a7d90611eef565b90600052602060002090601f016020900481019282611a9f5760008555611ae5565b82601f10611ab857805160ff1916838001178555611ae5565b82800160010185558215611ae5579182015b82811115611ae5578251825591602001919060010190611aca565b50611af1929150611af5565b5090565b5b80821115611af15760008155600101611af6565b6001600160e01b031981168114610f6057600080fd5b600060208284031215611b3257600080fd5b8135610e8d81611b0a565b60005b83811015611b58578181015183820152602001611b40565b83811115610e1a5750506000910152565b60008151808452611b81816020860160208601611b3d565b601f01601f19169290920160200192915050565b602081526000610e8d6020830184611b69565b600060208284031215611bba57600080fd5b5035919050565b80356001600160a01b0381168114611bd857600080fd5b919050565b60008060408385031215611bf057600080fd5b611bf983611bc1565b946020939093013593505050565b60c081526000611c1a60c0830189611b69565b8760208401528660408401528281036060840152611c388187611b69565b6080840195909552505060a00152949350505050565b600080600060608486031215611c6357600080fd5b611c6c84611bc1565b9250611c7a60208501611bc1565b9150604084013590509250925092565b60008060408385031215611c9d57600080fd5b82359150611cad60208401611bc1565b90509250929050565b600060208284031215611cc857600080fd5b610e8d82611bc1565b634e487b7160e01b600052604160045260246000fd5b600067ffffffffffffffff80841115611d0257611d02611cd1565b604051601f8501601f19908116603f01168101908282118183101715611d2a57611d2a611cd1565b81604052809350858152868686011115611d4357600080fd5b858560208301376000602087830101525050509392505050565b600082601f830112611d6e57600080fd5b610e8d83833560208501611ce7565b60008060008060008060c08789031215611d9657600080fd5b611d9f87611bc1565b9550602087013567ffffffffffffffff80821115611dbc57600080fd5b611dc88a838b01611d5d565b965060408901359550606089013594506080890135915080821115611dec57600080fd5b50611df989828a01611d5d565b92505060a087013590509295509295509295565b60008060408385031215611e2057600080fd5b611e2983611bc1565b915060208301358015158114611e3e57600080fd5b809150509250929050565b60008060008060808587031215611e5f57600080fd5b611e6885611bc1565b9350611e7660208601611bc1565b925060408501359150606085013567ffffffffffffffff811115611e9957600080fd5b8501601f81018713611eaa57600080fd5b611eb987823560208401611ce7565b91505092959194509250565b60008060408385031215611ed857600080fd5b611ee183611bc1565b9150611cad60208401611bc1565b600181811c90821680611f0357607f821691505b60208210811415611f2457634e487b7160e01b600052602260045260246000fd5b50919050565b6020808252602d908201527f4552433732313a2063616c6c6572206973206e6f7420746f6b656e206f776e6560408201526c1c881bdc88185c1c1c9bdd9959609a1b606082015260800190565b634e487b7160e01b600052601160045260246000fd5b6000600019821415611fa157611fa1611f77565b5060010190565b6000816000190483118215151615611fc257611fc2611f77565b500290565b60008219821115611fda57611fda611f77565b500190565b600082611ffc57634e487b7160e01b600052601260045260246000fd5b500490565b60008351612013818460208801611b3d565b835190830190612027818360208801611b3d565b01949350505050565b60208082526025908201527f4552433732313a207472616e736665722066726f6d20696e636f72726563742060408201526437bbb732b960d91b606082015260800190565b60208082526032908201527f4552433732313a207472616e7366657220746f206e6f6e20455243373231526560408201527131b2b4bb32b91034b6b83632b6b2b73a32b960711b606082015260800190565b7f416363657373436f6e74726f6c3a206163636f756e74200000000000000000008152600083516120ff816017850160208801611b3d565b7001034b99036b4b9b9b4b733903937b6329607d1b6017918401918201528351612130816028840160208801611b3d565b01602801949350505050565b6001600160a01b038581168252841660208201526040810183905260806060820181905260009061216f90830184611b69565b9695505050505050565b60006020828403121561218b57600080fd5b8151610e8d81611b0a565b634e487b7160e01b600052603260045260246000fd5b6000816121bb576121bb611f77565b50600019019056fe78a8708a3a199518d3505c5ab9ae6d9c4738044ca9641d04e1c8b4d0e64941afa26469706673582212209dc85adbf2cc8ce174b4f8efe1284fff0c19b4d466d906824211ee10e6e0010f64736f6c63430008090033",
  "linkReferences": {},
  "deployedLinkReferences": {}
}